:4000000000800020110000002D0300002D03000008B5044B04481A68026000F01FFD00F087F900BFFA460040BC76004010B5054C237833B9044810B10448AFF3008001210C
:40004000217010BD2881FF1F000000009422000008B5064B1BB106480649AFF300800648016811B1054A02B1904708BD00000000942200002C81FF1F0881FF1F00000000CD
:40008000034B187808B900F0B3BF00F0FFBC00BF4481FF1F002321B101390A5C9B18DBB2F9E718467047000008B50A4B002019680968FFF7EFFF084A13681978081A00F0B0
:4000C000FF028A4204D00020BDE8084000F07CBE08BD00BF0C81FF1F1081FF1F10B5FFF7E3FF00F06BFD00F02BF8FFF7C9FFB8B90446012000F072FEFFF7C2FF20B9013483
:40010000A4B2652CF5D101E0642C11D10B4B402247F230501A7000F087FD43F6982005E041F2883000F080FD40F6C41000F082FD00F02EFD00F0C2FAFEE700BFFA460040BE
:400140002DE9F043DFF8DC91DFF8DC8199F800306F4F43F00E0089F8000098F800106D4E41F00E0288F800203C7885B044F00E053D703378684D43F00E0030702978674CCF
:4001800041F00E022A70237843F00E00207099F8001041F0010289F8002098F8003043F0010088F80000397841F001023A70337843F001003070297841F001022A702378F6
:4001C00043F0010020700A2000F008FE99F8001001F010028DF8002098F8003003F010008DF80100397801F010028DF80220337803F010008DF80300297801F010028DF8CF
:400200000420237803F010008DF8050099F8001001F0FE0289F8002098F8003003F0FE0088F80000397801F0FE023A70337803F0FE003070297801F0FE022A70237803F0CC
:40024000FE0020700A2000F0C9FD99F8001001F010028DF8082098F8003003F010008DF80900397801F010028DF80A20337803F010008DF80B00297801F010028DF80C2078
:40028000237803F010008DF80D0099F8001021F00E0242F0020389F8003098F8000020F00E0141F0020288F800203B7823F00E0040F002013970327822F00E0343F002002E
:4002C0003070297821F00E0242F002032B702078002320F00E0141F0020222701A4602A8195C1DF8030008B1012102E00029FBD10221481E00FA03F001331218062BD2B257
:40030000EDD1511E064AC8B2107005B0BDE8F08306500040075000401A5000401B5000404481FF1F0450004005500040FEE7000008B51249124B4A1C1AD053F8106C53F82F
:400340000C0C53F8085C0022AA4200EB020403D0B45884500432F7E753F8040C0022824203D00025A5500432F9E701391033E2E701F054FFFFF7B2FEFEE700BF00000000D8
:400380003026000008B5104A104B1A60986840F400729A600023032B96BF0D4A0D4952F823100D4A42F823100133302BF3D10B490B4B08780B4918700A6000F017F80A48B3
:4003C0000022026008BD00BF0004FA050CED00E0000000002D0300000080FF1FBC7600400481FF1F08ED00E00081FF1FF8B572B60024544B062202FB043500212868AA88E9
:40040000013401F03AFF072CF3D1002319464E4A9858443202EB4104C6B220F0FF070022D5B2AE4209D004EB420C14F812509CF801E0013205F807E0F2E70433C0B2442B8C
:400440000144E4D1414E347844F002023270357C3F4C45F0020030743E48017841F04006067022783C4E42F010052570726834683A490C604A60314651F8085F384C4A68FE
:4004800025606260324652F8125F098925632181516812896163314651F81C5F22874A68098944F8A05C44F89C2C24F8981C56F8264F2C4D2C4A76682C606E6011782B4CD0
:4004C00041F0080515702A4A012603211B25267011809570274A06261670A2F580755221254E29703178254A07251170244900220A800D70234D48262A70AE700A704A71BA
:40050000214A02211170214A0235117841F001011170812222701E4C1E49227802F0070412090C704A701C491C4A0B701C49034653F8040B8B4242F8040BF9D11B8813807B
:40054000F8BD00BF98220000C422000003500140C2430040A04300401624000002510040C051004032510040224300400048004080400040004300400F010049A14600405A
:40058000044000400640004001400040A2430040CF0100496E58004076580040B0430040AC43004000470000431E10B50446062B0BD8DFE803F02406260F11080400174B99
:4005C00020E0174809E0174807E0002000F0FCFB002002E0144800E014484278037842EA0320022C04D0032C07D0012C15D104E0010241EA102080B210BD00BA10BD0C4B0E
:4006000000E00C4BD87899785A781B7840EA036040EA012141EA0240E3E710BDD8FF0300C5FF0300D4FF0300D2FF0300D6FF0300C1FF0300C9FF030070B50220FFF7B4FF3F
:4006400006460320FFF7B0FF711C00EB01260220FFF7AAFF0024013001022546B14209D211F8010B421ED3B20419FD2B98BF0125E4B2F3E70220FFF797FF0F49421C1302D0
:40068000DB088E4201D0F60801E04FF40046B34206D203F19041087801330219D4B2F6E7054864420278E4B2944201D0062070BD002DFBD0002070BDC0FF03002DE9F0433D
:4006C000ADF2A44D00F0FAFA10B1002000F07CFB02A800F007FB10B1002000F075FBB6480368196800230A4622B112F8014DE318DBB2F9E742681078C31A03F0FF028242AA
:4007000000D111B9002000F05FFBFFF795FFAB490B7803F0C002402A0B4601D000283ED000271F7000F0BAF962B6B946002692A84FF4967101AAFF2300F0DEF90028F6D19F
:40074000BDF80420062A40F283819DF84842012C40F07E819DF84A129DF84B5292AB41EA052505F1070E5B1996455C79197900F26D819A79172A40F06B812B1D9BB233B180
:400780000DF24722D25C013B801880B2F6E7404241EA042481B28C4240F05C8108E08020087000F013FB29B00DF5806DBDE8F0839DF849229DF84C82A2F131030A2B00F2AE
:4007C0001781DFE813F00B001A00150133008D0015019100A2003300B0000501002F00F03781002D40F03481FFF726FFD0F1010038BF00208DF84C02DBE0002F00F0288137
:40080000012D4FF0000440F0EC80B8F1030F00F2E880FF2303228DF84C428DF84D4225468DF84E328DF84F220424E3E0342A12D1002F00F00D81032D40F00A81A8F140061F
:400840003F2E8CBF4FF490761026DDA80021324601F013FD05E0002F00F0FA80022D40F2F780033DDDAB2A4698190DF24F2101F0FBFCA8F1400072193F2897B203D800F0AD
:4008800097FA102401E04FF49074A74240F0AB809DF84E129DF84D62B8F13F0F46EA012511D8B9F1000F0ED149464FF490724AA801F0E3FC0320FF214AAA4FF4907300F0FD
:4008C00027FA4FF001093B4640462946DDAA00F01FFA0127002800F0898000260A2588E0002F00F0B58021E7002F00F0B1807419B4F5967F00F2AA80DDA988192A4693A99C
:4009000001F0B2FCA6B2002573E0002D40F0A0802B484AAF93AC03C887E8030084E803000127082466E0002F00F09280032D40F08F809DF84E429DF84D12A8F140023F2ADD
:4009400041EA04250AD82D01002310221D4811184C5D013A2344DBB2F8D126E005EB08231C024FF480720023013A105D1918CBB2002AF9D1B8F13F0F17D808F5103405EB97
:4009800004204101545C01321B19202ADBB2F9D1B8F1030F09D1FF2D07D10B4D0B4C2878191A2378CA1A02F0FF035D428DF84C52002501241EE000BF0C81FF1FFA46004097
:4009C00044240000FF7F0040D0FF0300D1FF0300FFF732FE10B920488025057000F0F6F936E0042506E0012700262FE006468AE70525002401218DF849520022251DADF804
:400A000006408DF848128DF84A428DF84B22ADB20DF24720415D6B1E52189DB292B2002DF6D1504281B293AA11550D0A0DF24D2317200DF24E211D550855073492A8A1B287
:400A40000DF10602962300F038F870E60325D0E70425CEE70825CCE7FA46004008B50A4B1A7802F0C00080280CD1002119700120FFF79AFD30B10120FFF796FDBDE8084079
:400A8000FFF790BD08BD00BFFA460040024B1878C0F30010704700BFC151004008B562B60020022100F082FB014B01221A7008BD4581FF1F012000F023BCF8B507460E4622
:400AC00015460A240220394640225C4300F0DAFB022000F0B9FB30B92CB10120013C00F07DF9A4B2F4E7022000F0AEFB10B12E800020F8BD1020F8BD2DE9F0410A245C438D
:400B0000224B804618780F461646A8B1254600F08BFB30B92DB10120013D00F05FF9ADB2F5E700F081FBA8B100F084FBFFF7C2FF164900220A700DE000F07CFB50B100F033
:400B400073FB38B1FFF7B6FF04E054B100F046F9013CA4B2012000F077FB01284FF00100F3D100F071FB01280AD14146402F34BF3A46402200F0D8FB30800020BDE8F08144
:400B8000002333801020BDE8F08100BF4581FF1F024B1A7842F080001870704774650040044B187800F01001CAB212B1024B1B88F6E7704765650040A86A004010B5154B69
:400BC0001A7802F0C00040F00B01197093F820404EF6602144F001020F4C83F8202023780E4A43F0010020700D4B1180A2F880100C4A002147F230501880117000F02AF8CA
:400C0000237843F01001217000F028F8BDE81040FFF7C6BF7465004095650040086A0040486A004085650040014B1880704700BF886A0040014B1880704700BF486A0040CB
:400C40000230800800F0058000BF013800467FF4FCAF7047EFF3108072B6704780F31088704700BFAFF30080012010B500F068F9072809D04FF0FF3417E00E4B187800F0BD
:400C80000201CAB2002AF5D102210B4800F0F4F80228F2D1074C237803F00200C1B219B9012000F0AFF8F5E7002400F087F9204610BD00BF224700405781FF1F08B500F0F8
:400CC000C9F800F05BF958B9FFF7CEFF48B900F0C1F800F053F918B9BDE80840FFF7C4BF042008BD38B5044600F0B4F84CB100F045F9054638B9054B1C6000F05FF9284659
:400D000038BD012038BD042038BD00BF4881FF1FF8B505460E4617461C4600F02FF9F0B922462846394600F0C1F80728044613D11D4B1A7802F00200C1B219B9012000F07E
:400D400061F8F5E71C7804F00202D0B210B11B789B0806D04FF0FF3400F030F922E0042420E0124C284622786378314600F0C4F807280446F0D10C490A7802F00200C3B2D0
:400D80001BB9012000F03EF8F5E70C7804F00202D0B20028DED009788B0814BF4FF0FF340024D9E72046F8BD224700405781FF1F044B1A7842F010001870197C41F01002EE
:400DC0001A747047AC43004001BE7047024B1A7842F0010018707047F646004010B50446B4F5004F064B05D91868FFF729FFA4F50044F5E758686043BDE81040FFF720BF82
:400E00001481FF1F024B197A4843FFF719BF00BF1481FF1F064B1F281B6800D901BE00F01F0000F1100253F8220043F82210704708ED00E0072900D901BE1F2800D901BE82
:400E400000F01F0000F16042490102F56443C8B21870704708B5FFF7FDFE064B1A7842F0080119701A7C42F008011974BDE80840FFF7F4BEA043004070B506460D460024DC
:400E8000E3B2AB420CD207480178CB0703D40120FFF7B8FFF7E7044A137833550134EFE7284670BD224700402047004030B5104B1C7804F00204E4B2ACB10E4CB6252570D3
:400EC000D5252570022525701B782B40DBB263B9207098B2904204D2CC5C064801330470F7E7072030BD042030BD092030BD00BF224700402047004070B50F4D2C7804F01F
:400F00000204E4B2A4B10D4CB6262670D8262670052626702D7805F00205EDB255B92070080AC9B22070217007202270237070BD042070BD092070BD2247004020470040A4
:400F40000C4A137803F00201CBB273B10A4BB6211970E12119700E211970127802F00201CAB222B9187007207047042070470920704700BF224700402047004038B5FFF718
:400F800069FE0C4B197879B901250B4A1D7014682C400AD0146824F00104146000BF00BF00BF5D600C4600E00424FFF757FE204638BD00BF4C81FF1F0400084010B5FFF732
:400FC00049FE094B002259681A70012908D107490C6844F001040C6000BF00BF00BF5A60BDE81040FFF73ABE4C81FF1F04000840024B1878C0F30010704700BF21510040A4
:40100000F8B5FFF727FE384B07461A78012542F001001870197C022641F001041C74334B334C1D7003F8946C13F88D2C02F07F0003F88D0C0020FFF7E5FE21782D4801F0DC
:40104000F9032370027802F0DF010170237828462B432370FFF7D6FE2820FFF7D3FE2648027802F07F010170037803F0BF0202702078304320703046FFF7C4FE21781F4A0A
:4010800041F0040323700024147038465470FFF7E5FD17201A49FFF7BDFE17200721FFF7C9FE15201749FFF7B5FE15200721FFF7C1FE18201449FFF7ADFE18200721FFF760
:4010C000B9FE20461149FFF7A5FE20460721FFF7B1FE28460E49FFF79DFE28460721BDE8F840FFF7A7BE00BFA54300409D6000409443004012600040F851004084600040EF
:40110000FF170000FD1700003D16000095170000C9170000184B012210B51A70174B4FF400041C604FF080741C601A6002221A60134B00241C70134B01B1032212491A70BD
:40114000124B0870124A002012491870124B10700870124A12491870124B10700870802203201870012003F8202CFFF769FD0E480421017010BD00BFEC81FF1F00E100E07D
:401180007281FF1F096000406C81FF1F7181FF1F6D81FF1F7081FF1F5C81FF1F6F81FF1FE581FF1F286000401260004070B5074C064623780D461BB9FFF722FF01202070EA
:4011C00030462946BDE87040FFF7A4BF5481FF1F0C4B01220C491A7000200C4A0C4B08700C49107018700C4A0C4B08700C49107018700C4B087080220320187003F8202C89
:40120000704700BFEC81FF1F7281FF1F7181FF1F6D81FF1F7081FF1F5C81FF1F6F81FF1FE581FF1F28600040014B1878704700BF7181FF1F034B187810B1002218781A70DF
:40124000704700BF7081FF1F024B0C2202FB0030407870477881FF1F0138C3B2072B0CD81901074ACBB2985C511C5B5C00F00F0243EA0220811E88B270470020704700BF81
:401280000C600040431EDBB2072BF0B52FD8184E1C010C27E3B207FB0064E788154DBFB2C7F50077BA421D4403D9E288C2F50074A2B20C2404FB0066F47844EA12260E4CAD
:4012C0001E55D6B201341E5549B9094A0C2101FB0020002141704079084A9854F0BD0024A6B29642F1D20E5D01342E70F8E7F0BD7881FF1F886000400C6000400E600040BD
:40130000431EDBB2072B0AD8054A0C2101FB0020002141701B014079024ADBB2985470477881FF1F0E600040F8B5431E0D46D9B207290746144616D8BDB10A010C4ED3B222
:401340009E19FFF789FFA04228BF204684B2002290B2A04203D23178A9540132F8E73846FFF7CEFF02E0002400E02C462046F8BD886000401B4B1C491A880878821891B25A
:4013800019801A491A4BCAB2188880B278B1194A91420BD05A68107801F8010B5A68501C58601A88501E82B21A80EBE708220E490B78082B00D05AB10F48017881F0800389
:4013C0000E4903700F200E4B08700220187004E00A490B4B022008701870034909480A7002707047E881FF1FE581FF1F006000406081FF1F086000406E81FF1F5D81FF1F2F
:401400007281FF1FE681FF1F074B02221A700749074B80200F2208701A700649064A002008701070012070477281FF1F6E81FF1F5D81FF1FE581FF1FE681FF1F10B5154BCA
:401440001A78154B02F00F00811E1888CAB2111888B212491880124B188880B270B16AB1586811F8014B013A04705868D2B2013058601888013880B21880ECE709490A4BEF
:401480000A701A780B2182F080001870074B197010BD00BF29600040E881FF1F006000406081FF1FE681FF1F6E81FF1F5D81FF1F064A0748062313700370064B0648802198
:4014C0000022197002700120704700BF7281FF1F5D81FF1F6E81FF1FE681FF1F054B9A683AB19968044A08709868118841800020986070476081FF1FE881FF1F08B50A4BD4
:401500001A7832B11978094A41F08000002110701970074B002018700120FFF7DFFF054903220A7008BD00BF5C81FF1F086000407281FF1F5D81FF1F08B5054B0022012017
:401540001A70FFF7CBFF03490320087008BD00BF7281FF1F5D81FF1F074B1878042805D0062805D0022805D1FFF704BFFFF7E4BFFFF7C4BF704700BF7281FF1F08B5084963
:40158000084B1A880878821891B21980064B002018700120FFF7A2FF044903220A7008BDE581FF1FE881FF1F7281FF1F5D81FF1F08B50B4B1878042807D0062809D00228EF
:4015C0000DD1BDE80840FFF7D9BFBDE80840FFF735BF0320FFF782FF024903220A7008BD7281FF1F5D81FF1F08B5114B1A781A701878020602D50F4B187008BD0220FFF702
:401600006DFF0D490B7803F06002202A05D0402A06D042B900F080FC04E000F0D7FD01E000F0C8FD10B903490320087008BD00BF286000405D81FF1F0060004008B5224B4A
:401640001A78D0B200F01001CBB2002B3BD052B2002A0ADA00F00F01012934D1FFF7C4FF1A4B187800060DD508BD00F04001CBB213B1FFF771FF05E000F02000C2B212B300
:40168000FFF796FF104A117809061CD4104B114A1878117841EA00030F4803700278934211D10A49084B0A78187800F08000C0B220B90A781A70197801F00F02034B1878D5
:4016C0008242EED108BD08BD286000405D81FF1F6E81FF1FE681FF1F29600040054A00231380054A916819B191680B7090684380704700BFE881FF1F6081FF1F08B50C496A
:401700000C4B042280201A700870FFF7E7FF0A4B1A78581E094B0178188841EA022281B2914288BF1A80064B0B221A70012008BD6E81FF1F7281FF1F076000406081FF1FFC
:401740005D81FF1F10B50F4C238898B210B9FFF75BFE14E00C490D4B022200200A701870FFF7BCFF0A49481E0A78037843EA0221228890B2884288BF2180FFF7FBFD0120F5
:4017800010BD00BF6081FF1F7281FF1F6E81FF1F07600040094B0A481B78027B02F00301012903D0C37B83F08002C273012141730448037803F0FE02027070470E60004061
:4017C0007881FF1F0B600040094B0A481B78027E02F00301012903D0C37E83F08002C276012141760448037803F0FD02027070471E6000407881FF1F0B6000407047FFF725
:40180000E7BC000008B50B4B1878411EC8B200F087F9094A0949137800EBC3004269CB5C02EBC3004268064B506A01781980586008BD00BF7181FF1F046000405E81FF1F05
:401840006081FF1F08B50D4B1878411EC8B200F067F90B4A0B49137800EBC3004269CB5C02EBC3004268D369074A597813F8020B40EA01211180536008BD00BF7181FF1FF3
:40188000046000405E81FF1F6081FF1F10B5164C00231648238001784A1ED0B200F040F91349144B1B780A7800EBC2004169D2B9114A013B1078DAB201EBC001022A4968CA
:4018C00011D80E4A01EBC300127811F83310914209D30C235A4341688B1858688A5A996860602280A16010BD6081FF1F7181FF1F04600040036000405E81FF1F0260004091
:4019000010B53A4B3A4A18781178090634D5511C0B785A1E052A67D8DFE802F010182766660334480178212902D1FFF76BFF07E00378222B58D1FFF785FF01E0FFF7A6FFBB
:401940002D490B8898B200284ED00AE000284BD12A4B1878002847D127480122284902804160BDE81040FFF7EDBE00283CD12248012202802349F3E713781A0634D4224AF6
:401980001178092905D02FD30A290DD00B292BD122E0FFF77BFF184B1A8890B2002823D0BDE81040FFF7AABEF0B914480178D9B9441C2378124A1370144B14781878844203
:4019C00001D2197004E01978012901D912781A70BDE81040FFF76CBD30B908480378012B02D80278074BF2E7002010BD0460004000600040036000406081FF1F0260004016
:401A0000EA81FF1FEC81FF1F01600040EB81FF1F7FB5134B02466D4603F11006186859682C4603C40833B3422546F7D1B2B1222003210C4B1070517013F8011B04AC04EBCC
:401A4000111010F8100C01F00F019070601810F8101C054802F8041F8342EDD17FBD00BF4C240000000100490801004930B5012202F10F031801092AC3B23BD01F4903F14B
:401A800080440C2004F5C14500FB021428701C496579591825B12479240658BF082000E08020087017490C245818144904FB02110C890132C4F3072404700C891248E4B2F4
:401AC00018180470CC881148E4B218180470CC880F48C4F3072418180470CC880D48E4B2181804700C48D2B21818CB88C3F307210170BDE70949FF220A7030BD7881FF1F08
:401B00000E6000400C6000400D600040866000408760004084600040856000400A600040084B09491A7801EBC20359680B7A01F10802834203D902EBC00040687047002067
:401B4000704700BF6C81FF1F60240000F8B53D4B1A78002A74D01878411EC8B2FFF7E0FFC368057A08330020A84269D013F8082C3549364C8E5CA45CA6425DD0895C13F897
:401B8000074C8C4258D1324909788A4254D113F8067C07F07F02561E3401E1B213F8056C2C4C17F0800F4FF00C0706F0030607FB024406D001276770BE4214BF0D26072682
:401BC00005E000276770012E14BF092605266671214C01260F190C2454433E701D4E33F8047C3219178113F8067C177113F8057C37550026D6701689184CC6F307260C19FE
:401C000026701689164CF6B20C192670D688154CF6B20C192670D688134CC6F307260C192670D688114CF6B20C192670104C0C19D188C1F3072222700130C0B2083393E76B
:401C4000F8BD00BF7181FF1F5E81FF1FE481FF1F046000407881FF1F0E6000400C6000400D6000408660004087600040846000408560004008B5064B1878411EC8B2FFF79B
:401C80004FFF20B14268137900EBC300406908BD7181FF1FF8B500210C244C43514D013100232A1909292B55937002F108045370D370537113819372EED118B14A484B4A1A
:401CC000037013704A4B1978002900F08A801C78601EC0B2FFF724FF4268D37903F04001CCB2444B1CB11C7844F0010102E01A7802F0FE01047A19700122C3680021083324
:401D0000A14243D013F8065C05F07F06B24239D1344E0C2707FB0266B6F808E033F8047C1FFA8EFCBC4538BF378113F8086C2E4FBE5D13F8077CB74224D113F8056C15F001
:401D4000800F284D4FF00C0706F0030607FB025506D001276F70BE4214BF0D26072605E000276F70012E14BF092605266E710C2555431C4E13F806EC771987F804E013F851
:401D8000057C77550131C9B20833B9E70132092AB3D1C36800220833A2420DD013F8065C0C2605F07F010F4D13F8080C06FB015101328872D2B2EEE7FFF75CFF0E4B0022E7
:401DC0001860012307490C2000FB0310C280018901335218092B92B2F4D1BDE8F840FFF745BEF8BD7881FF1F5E81FF1FE481FF1F7181FF1F6F81FF1F7481FF1F124B1978D5
:401E000001F07F014A1ED0B207281AD80301DAB20E4B0C2000FB0130817841F0010300218370C170437843F0020141700079084B10F0800F01D08D2100E08921D154FFF751
:401E400037BB0020704700BF046000407881FF1F0E60004010B51A4B187800F07F035A1ED2B2072A2AD817490C2000FB03139C78120104F0FE01997000241349DC70D2B206
:401E8000545C04F07F045454597801F0FD01597019795B7811F0800F0C4905D0012B01D1505407E00D2004E0012B01D1082000E009205054BDE81040FFF7FABA002010BDB2
:401EC000046000407881FF1F0C6000400E60004010B50C4B0C481C7801784A1ED0B2FFF71FFE43681879A04209D944B9074B084A19780848117001780120197010BD002040
:401F000010BD00BF046000407181FF1F5E81FF1FE481FF1F0260004038B5804B00221A807F4A8048117811F0800F00F08F8001780A2900F23481DFE811F05D003201320144
:401F40003201320132010B0032017D0032018100754B197801290AD174487549027801EBC2035868122342686C48426012E01878022814D16F4B1878FFF7D2FD002800F0B1
:401F80000E814268654842604168CB784268917841EA03230380BDE83840FFF7D3BB1A78032A23D1644B002262490878904202D80A7842B911E018780028F9D01878511C3E
:401FC0001B18CAB2F0E75B495C4A0878117C814203D15B48FFF71CFD594B1878002800F0DE8019784D4A11805360D4E7BDE8384000F0ECB8117811F0030211D0022A40F06D
:40200000CE8046494F4B0A8018784F4A00F07F030C2000FB032398784C4B0022187006E03E4902234A480B800078484B18705A704B60B0E701221A80464805E0012241483C
:402040001A800278444988185860A4E70378581E0A2800F2A480DFE810F03800A2005100A2000B00A200A200A2000F00A2002600304B3A49187881E02E4D2D78ECB25CB985
:4020800034480278944200F086803549057001200870FFF7FFFD7EE0631ED8B2FFF740FD0028EDD17BE0FFF713FF002877D0254C2C4A24782A4B012114701970FFF746FD2C
:4020C00025482949025D0A5565E0127802F00301012955D009D3022961D1164B187800285DD1BDE83840FFF7B5BE124A1178012955D117490B7803F0FD003FE0107800F08A
:402100000302012A3CD031D3022A48D109490B78002B44D1BDE83840FFF770BE6081FF1F0060004001600040036000406C81FF1F60240000026000401E250000EA2500005E
:402140003382FF1F046000407881FF1F5581FF1F6F81FF1F7181FF1F5E81FF1F5C81FF1F7081FF1F6D81FF1FE481FF1F0D480278012A14D10C490B7843F0020008700AE0DB
:402180000A4802785AB90378094A0648D15C007821EA0001D154BDE83840FFF789B9002038BD00BF026000406F81FF1F046000407381FF1F034B1878010644BF024909780B
:4021C0000020704700600040016000400F4B187800F0030101290CD002290DD10C4A0C2110780C4A00F07F0301FB03200830837803E0074B1B7800E0002307490A68D05CFC
:40220000032801D1FFF77CBB0020704700600040046000407881FF1F7481FF1F38B50E4D0E4B0024E81A8510AC4205D00B4951F8242090470134F7E700F0E0F90849094AD8
:40224000541AA5100024AC4205D0054B53F8240080470134F7E738BD0826000008260000082600001026000010B50023934203D0CC5CC4540133F9E710BD8218034693429D
:4022800002D003F8011BFAE77047000050260000690000000000000010510040100040510040300000000140001000140140000800400140000A004C0140000200500140B3
:4022C000200000000145004006520040016500404014014025150140011701400119014003400140024101400242014002430140034701400348014004490140024C0140EF
:4023000002500140015101407E0204F0141019021C0C64107C40852D100124012E0130014030410449FF4AFF4BFF4DA04F045018528058045A045B045F01604062C064403B
:40234000654066C068C06AC06CC06EC08106900193019D04A506B104B201B301B702B802BE04C020C104C5D2C612C82FC9FFCAFFCBFFCDAFCE0FCF04D018D425D804D90471
:40238000DA04DB04DF01E040E2C0E440E540E6C0E8C0EAC0ECC0EEC009010E8010221A801E801F042450268027202C20350136803D0240104280468047204D014F045420D2
:4023C000550156805C405D015F046708700271018240C218C405CA40CC90CE80D0A3D6D0D820EE0AEE0A33803640CC30A640A780A640A780A640A78008080F40C20CAE4080
:40240000AF80EE505B408340D480E680AC08AF4010011A01000AF000000000000000100000100000000000000000000000000000C000100000100000000000000C0202003E
:40244000020000006970122E001401013031323334353637383941424344454600000000010000006824000001000000EA250000010000007824000001000000C125000068
:40248000020000009A24000001000000AC2400000000000098240000030000000103400003000000820340000300000001000000B424000000000000E824000000000000D8
:4024C000DC240000000000000000000001000000F424000001000000D3250000410000005582FF1F9682FF1F41000000F281FF1FEE81FF1F240005FF0900A1010900A10181
:402500000900150025FF7508954091020900150025FF750895408102C0C000000203040309042C0343007900700072006500730073002000530065006D00690063006F002C
:402540006E0064007500630074006F0072002A0343006F006E00660069006700750072006100740069006F006E002000300078003000300030003100220349006E007400FE
:40258000650072006600610063006500200030007800300030003000310026034B0069007400500072006F006700200042006F006F0074006C006F00610064006500720018
:4025C000000902290001010280FA09040000020300000309211101000122240007050103400001070582034000011201000200000008B4043BF1000101048001F8B500BF7A
:40260000F8BC08BC9E4670475100000085030000F8B500BFF8BC08BC9E4670472D000000302600000881FF1F2000000078010000000000008C220000902200000000E02EFE
:40264000C05D00001800000000366E010000000000000000000000000000000000000000000000000000000000000000000000000000000000000000000000000000000080
:40268000000000000000000000000000000000000000000000000000000000000000000000000000000000000000000000000000000000000000000000000000000000001A
:4026C00000000000000000000000000000000000000000000000000000000000000000000000000000000000000000000000000000000000000000000000000000000000DA
:402700000000000000000000000000000000000000000000000000000000000000000000000000000000000000000000000000000000000000000000000000000000000099
:402740000000000000000000000000000000000000000000000000000000000000000000000000000000000000000000000000000000000000000000000000000000000059
:403200000080002011320000815000008150000080B500AF01F066FF10B5054C237833B9044B13B10448AFF300800123237010BD7881FF1F0000000044BD0000084B10B5FD
:403240001BB108490848AFF300800848036803B910BD074B002BFBD0BDE81040184700BF000000007C81FF1F44BD0000C880FF1F0000000000000000B0B58AB000AF01F05F
:4032800093F801F03DF901F003FA8F4B1B889BB2DBB2184607F0CEFC0346FB618B4B1B78184607F0C7FC0346F969184607F01AFD0346184607F032F981A3D3E9002307F0F8
:4032C000ABFA03460C4625461C46814B1B78184607F0B0FC0346184607F020F902460B462046294606F0BCFF03460C461846214607F09AFB0346FB617649F86907F0AEFE37
:403300000346002B01D0734BFB61F86907F0B0FE0346DAB2704B1A70704B1B78002B01F015806F496F4807F037FFB861BB691B78692B04D16C4801F06BFA01F004B8BB695F
:403340001B78442B74D16649002007F025FFB861BB691B784F2B11D16149002007F01CFFB861BB1D1A466149B86907F0E1FEFB88DBB2184606F036FD00F0E5BFBB691B7840
:40338000412B04D15A4B01221A7000F0DCBFBB691B78612B04D1564B00221A7000F0D3BFBB691B78462B27D14D49002007F0F4FEB861BB1D1A464D49B86907F0B9FEFB8810
:4033C0001B027B614649002007F0E6FEB861BB1D1A464649B86907F0ABFEFB881A467B6913447B617B699BB2013B9BB20121184606F02CFC00F0A7BFBB691B78442B40F0AB
:40340000A2873749002007F0C7FEB861BB1D1A463649B86907F08CFEFB88F92B01D9F923FB80FB88DBB2184606F0BEFB00F08BBFBB691B78572B40F079842949002007F037
:40344000ABFEB861BB691B78532B31D12449002007F0A2FEB861BB1D1A462449B86907F067FEFB881B023B611D49002007F094FEB861BB1D1A461D49B86907F059FEFB8800
:403480001A463B6913443B611549002007F084FEB861BB1D1A461549B86907F049FEFB88D9B2144A3B6913440A461A7000F04BBFBB691B78502B6ED10023BB8465E000BFFE
:4034C0000000000000E06F40086500409481FF1F9581FF1F00007F43CD91FF1FCE91FF1F48BD00005CC2FF1F4CBD00005CBD0000C689FF1F10A2FF1FBB8CA54AD35C18460B
:4035000007F098FB0446A34B1B78184607F092FB03461946204607F0E5FB0346184606F0FDFF99A3D3E9002307F076F903460C4625461C46984B1B78184607F07BFB034663
:40354000184606F0EBFF02460B462046294606F087FE03460C461846214607F065FA0346FB618E49F86907F079FD0346002B01D08A4BFB61BC8CF86907F07AFD0346DAB2C2
:40358000874B1A55BB8C0133BB84BB8CB3F5006FB2D300F0D8BEBB691B78412B60D18149002007F0F9FDB861BB1D1A467E49B86907F0BEFDFB88DAB2764B1A700023BB84D5
:4035C00048E0BB8C724AD35C184607F033FB0446704B1B78184607F02DFB03461946204607F080FB0346184606F098FF66A3D3E9002307F011F903460C4625461C46664B23
:403600001B78184607F016FB0346184606F086FF02460B462046294606F022FE03460C461846214607F000FA0346FB615B49F86907F014FD0346002B01D0584BFB61BC8C5C
:40364000F86907F015FD0346DAB2554B1A55BB8C0133BB84BB8CB3F5006FB2D300F073BEBB691B784F2B60D14E49002007F094FDB861BB1D1A464C49B86907F059FDFB88C6
:40368000DAB2454B1A700023BB8448E0BB8C404AD35C184607F0CEFA04463E4B1B78184607F0C8FA03461946204607F01BFB0346184606F033FF34A3D3E9002307F0ACF805
:4036C00003460C4625461C46334B1B78184607F0B1FA0346184606F021FF02460B462046294606F0BDFD03460C461846214607F09BF90346FB612949F86907F0AFFC034628
:40370000002B01D0254BFB61BC8CF86907F0B0FC0346DAB2224B1A55BB8C0133BB84BB8CB3F5006FB2D300F00EBEBB691B78572B10D105F045F8034623F00103DBB21846D4
:4037400005F02EF805F03CF80346184605F028F800F0F9BDBB691B784E2B27D105F030F8034623F00103DBB2184605F019F805F027F8034643F00103DBB2184605F010F891
:4037800000F0E1BDAFF300800000000000E06F4010A2FF1F9481FF1F9581FF1F00007F435CBAFF1F48BD00005CBD0000BB691B78462B7BD19249002007F0EEFCB861BB1D3E
:4037C0001A469049B86907F0B3FCFB881B063B628B49002007F0E0FCB861BB1D1A468949B86907F0A5FCFB881B043A6A13443B628349002007F0D0FCB861BB1D1A468149E1
:40380000B86907F095FCFB881B023A6A13443B627B49002007F0C0FCB861BB1D1A467949B86907F085FCFB881A463B6A13443B62386A07F0FFF90346184606F06FFE6CA33E
:40384000D3E9002306F0BEFE03460C461846214607F0EAF80346FB60F9686B4807F0F6FA0346184607F004FC03463B623B6A4FF6FE72934203D94FF6FF733B6204E03B6A73
:403880000F2B01D80F233B623B6A9BB2013B9BB20121184605F066FB3B6A9BB2013B9BB20121184606F026F800F04DBDBB691B78732B31D15249002007F06EFCB861BB1D68
:4038C0001A465049B86907F033FCFB881B023B614B49002007F060FCB861BB1D1A464949B86907F025FCFB881A463B6913443B614349002007F050FCB861BB1D1A464149E5
:40390000B86907F015FCFB88D9B2404A3B6913440A461A7000F017BDBB691B78702B51D10023BB8448E0BB8C384AD35C184607F081F90446364B1B78184607F07BF90346F8
:403940001946204607F0CEF90346184606F0E6FD29A3D3E9002306F05FFF03460C4625461C462C4B1B78184607F064F90346184606F0D4FD02460B462046294606F070FCE3
:4039800003460C461846214607F04EF80346FB612149F86907F062FB0346002B01D01E4BFB61BC8CF86907F063FB0346DAB21B4B1A55BB8C0133BB84BB8CB3F5006FB2D357
:4039C00000F0C1BCBB691B78612B78D10C49002007F0E2FBB861BB1D1A460A49B86907F0A7FBFB88DAB20A4B1A700023BB8460E0524CFEFF83D7B73F0000000000E06F401D
:403A000048BD00005CBD0000005489465CB2FF1F9681FF1F9781FF1F00007F435CAAFF1FBB8CAF4AD35C184607F004F90446AD4B1B78184607F0FEF803461946204607F0E2
:403A400051F90346184606F069FDA1A3D3E9002306F0E2FE03460C4625461C46A24B1B78184607F0E7F80346184606F057FD02460B462046294606F0F3FB03460C461846A8
:403A8000214606F0D1FF0346FB619849F86907F0E5FA0346002B01D0944BFB61BC8CF86907F0E6FA0346DAB2914B1A55BB8C0133BB84BB8CB3F5006FB2D300F044BCBB694B
:403AC0001B786F2B5FD18B49002007F065FBB861BB1D1A468849B86907F02AFBFB88DAB2814B1A700023BB8448E0BB8C7C4AD35C184607F09FF804467A4B1B78184607F0B1
:403B000099F803461946204607F0ECF80346184606F004FD6EA3D3E9002306F07DFE03460C4625461C46704B1B78184607F082F80346184606F0F2FC02460B46204629468E
:403B400006F08EFB03460C461846214606F06CFF0346FB616549F86907F080FA0346002B01D0624BFB61BC8CF86907F081FA0346DAB25F4B1A55BB8C0133BB84BB8CB3F5E0
:403B8000006FB2D3DFE3BB691B78772B0FD104F017FE034623F00403DBB2184604F000FE04F00EFE0346184604F0FAFDCBE3BB691B786E2B12D104F003FE034623F0040302
:403BC000DBB2184604F0ECFD04F0FAFD034643F00403DBB2184604F0E3FDB4E3BB691B78662B40F08D804349002007F0D5FAB861BB1D1A464049B86907F09AFAFB881B0618
:403C00003B623C49002007F0C7FAB861BB1D1A463949B86907F08CFAFB881B043A6A13443B623449002007F0B7FAB861BB1D1A463149B86907F07CFAFB881B023A6A1344A6
:403C40003B622C49002007F0A7FAB861BB1D1A462949B86907F06CFAFB881A463B6A13443B62386A06F0E6FF0346184606F056FC19A3D3E9002306F0A5FC03460C46184626
:403C8000214606F0D1FE0346FB60F9681B4807F0DDF80346184607F0EBF903463B623B6A4FF6FE72934203D94FF6FF733B6204E03B6A0F2B01D80F233B623B6A9BB2013B44
:403CC0009BB20121184605F035FB3CE3AFF300800000000000E06F40524CFEFF83D7B73F5CB2FF1F9681FF1F9781FF1F00007F435CAAFF1F48BD00005CBD00000054894659
:403D0000BB691B78582B40F01E83BE49002007F043FAB861BB1D1A46BB49B86907F008FAFB88DBB2184604F037FE0CE3BB691B78532B40F00583B349002007F02DFAB861E8
:403D4000BB691B784F2B0FD14F2000F073FD802000F070FD802000F06DFD802000F06AFD802000F067FDEEE2BB691B78542B10D1A449002007F010FAB861BB1D1A46A24950
:403D8000B86907F0D5F9FB88DBB2184604F030FAD9E2BB691B78432B33D19A49002007F0FBF9B861BB1D1A469749B86907F0C0F9FB881B02FB849349002007F0EDF9B861AC
:403DC000BB1D1A469049B86907F0B2F9FA88FB8C1344FB84FB8C40F2FE32934203D940F2FF33FB8404E0FB8C022B01D80223FB84FB8C184604F034FBFB8C184604F012FB90
:403E0000A1E2BB691B78522B40F002817D49002007F0C2F9B861BB1D1A467B49B86907F087F9FB8803F04003002B2AD1FB8803F02003002B12D104F07BFB034623F00F0375
:403E4000DBB2184604F064FB04F072FB034643F00203DBB2184604F05BFB24E004F068FB034623F00F03DBB2184604F051FB04F05FFB034643F00103DBB2184604F048FB09
:403E800011E004F055FB034623F00F03DBB2184604F03EFB04F04CFB034643F00803DBB2184604F035FBFB8803F01003002B06D1564B00221A70002004F0C8F905E0534B46
:403EC00001221A70012004F0C1F9FB8803F08003002B05D04D4B02221A70022004F0B6F9FB8803F00F03002B04DC0121002004F031F828E2FB8803F00F03012B04D101219B
:403F0000012004F027F81EE2FB8803F00F03022B04D10121032004F01DF814E2FB8803F00F03032B04D10121072004F013F80AE2FB8803F00F03042B04D101210F2004F0EF
:403F400009F800E2FB8803F00F03052B04D101211F2003F0FFFFF6E1FB8803F00F03062B04D101213F2003F0F5FFECE1FB8803F00F03072B04D101217F2003F0EBFFE2E1F5
:403F8000FB8803F00F03082B04D10121FF2003F0E1FFD8E1FB8803F00F03092B05D1012140F2FF1003F0D6FFCDE1FB8803F00F030A2B05D1012140F2FF3003F0CBFFC2E1C3
:403FC000FB8803F00F030B2B05D1012140F2FF7003F0C0FFB7E1FB8803F00F030C2B05D1012140F6FF7003F0B5FFACE1FB8803F00F030C2B40F3A781012141F6FF7003F0BB
:40400000A9FFA0E148BD00005CBD0000CC91FF1FBB691B78442B59D1B549002007F0BCF8B861BB1D1A46B349B86907F081F8FB88002B09D104F07CFA034603F07F03DBB28A
:40404000184604F065FA7EE1FB88012B09D104F06FFA034663F07F03DBB2184604F058FA71E1FB88022B09D104F062FA034623F04003DBB2184604F04BFA64E1FB88032B16
:4040800009D104F055FA034643F04003DBB2184604F03EFA57E1FB88042B09D104F048FA034623F01003DBB2184604F031FA4AE1FB88052B40F0478104F03AFA034643F020
:4040C0001003DBB2184604F023FA3CE1BB691B78472B12D104F02CFA034643F04003DBB2184604F015FA04F023FA034623F04003DBB2184604F00CFA25E1BB691B78422B02
:4041000040F08480442000F095FB0023BB8478E0BB8C794A32F81330184606F0EDF972A3D3E9002306F078FB03460C461846214606F05AFC03469BB2FB80BB8C6F4A32F8B8
:404140001330184606F0D8F967A3D3E9002306F063FB03460C461846214606F045FC0346FB84BB8C9B0003F03C03FA88120A92B2D1B2634AD154BB8C9B005A1C614B134099
:40418000002B03DA013B63F03F0301331A46FB88D9B25B4B9954BB8C9B009A1C594B1340002B03DA013B63F03F0301331A46FB8C1B0A9BB2D9B2524B9954BB8C9B00DA1C0F
:4041C000504B1340002B03DA013B63F03F0301331A46FB8CD9B24A4B9954BB8C01339B0003F03C03002B09D100BF02F035FA0346002BFAD04021424802F01CF9BB8C0133F8
:40420000BB84BB8CB3F5806F82D39CE0BB691B78502B58D13649002006F0BEFFB861BB691B78412B10D13249002006F0B5FFB861BB1D1A462F49B86906F07AFFFB88DBB218
:40424000184604F047FC7EE0BB691B78422B10D12749002006F0A0FFB861BB1D1A462549B86906F065FFFB88DBB2184604F000FD69E0BB691B78432B10D11D49002006F0BD
:404280008BFFB861BB1D1A461A49B86906F050FFFB88DBB2184605F025FE54E0BB691B78442B50D11249002006F076FFB861BB1D1A461049B86906F03BFFFB88DBB218460A
:4042C00005F010FE3FE0BB691B784D2B34D10849002006F061FFB861BB691B78412B13D1002005F05DFE2EE014AE47E17A14F03F48BD00005CBD0000C481FF1FCC89FF1F68
:4043000014AAFF1F3F000080BB691B78422B03D1002005F061FE16E0BB691B78432B03D1012005F03DFE0EE0BB691B78442B0AD1012005F051FE06E0174800F069FA02E068
:40434000164800F065FA164B00221A7004F0FCF80346FB72FB7A03F00403002B3EF493AF104B1B78184600F063F903463B81412000F060FA3B891B0A9BB2DBB203F00F03C7
:40438000DBB2184600F056FA3B89DBB2184600F051FAFEF778BF00BF60BD000084BD0000CE91FF1F10AAFF1F80B500AF62B64B4B00221A804A4B00221A700121002001F088
:4043C00055FC00BF01F0F6FD0346002BFAD001F0DDFF002003F03AFF01F040FB01F036FA04F04AFB04F016FC05F04EFD05F052FE03F0AAFE04F002F904F01AFA04F078FA69
:4044000003F0A4FF40F2FF3004F02AF840F2FF3004F008F8002004F05DFB002004F028FC002005F05FFD002005F062FE2D4B00221A7004F07DF8034623F00F03DBB21846AA
:4044400004F066F804F074F8034643F00203DBB2184604F05DF804F0B3F9034623F00103DBB2184604F09CF904F0AAF90346184604F096F904F09EFC04F042FD04F0E0FE0D
:4044800004F068FE4FF40061174804F0A5FC174B00221A704FF40061154804F0E3FE154B00221A7004F020F90121134804F0C8FC0121114804F00AFF002005F093FC0F4B62
:4044C00000221A7005F0E2FA05F030FB05F0A4FB01217F2005F0BAFB00BF80BDC281FF1FCE91FF1FCC91FF1F5CBAFF1F9481FF1F5CAAFF1F9681FF1FCD91FF1FC689FF1F22
:4045000080B500AF41F6FF734FF480420121022003F0B8FE03461A463F4B1A7000F0F4FF03461A463D4B1A703C4B18783B4B1A7806234FF4006101F015F8384B1B78384A0F
:4045400092B245F6A231184601F04CF8324B1A78324B1B781946104600F03CFF2E4B1B780121184601F06CF82B4B1B780421184600F04EFF284B1B780121184600F076FEC3
:40458000254B1B780121184600F070FE41F6FF734FF480420121022003F0A6FE03461A46204B1A7000F0B0FF03461A461E4B1A701D4B18781C4B1A7802234FF4006100F00E
:4045C000D1FF194B1B78194A92B245F6A031184601F008F8134B1A78134B1B781946104600F0F8FE0F4B1B780121184601F028F80C4B1B780421184600F00AFF094B1B78AB
:404600000121184600F032FE064B1B780121184600F02CFE00BF80BD10AAFF1FC889FF1FC481FF1FC081FF1F58AAFF1FCC89FF1F80B485B000AF0346FB71FB79DB0003F1B4
:40464000804303F5F043DB79DBB29BB21B029AB2FB79DB0003F1804303F5F0439B79DBB29BB21343FB81FA89084B99B26FF001035B1A13445B089BB2C3F30903FB81FB8902
:4046800018461437BD4680BC704700BFC481FF1F80B582B000AF02F017F801F0CBFF0346002B5AD001F09CFF0346BB80BB88002B07D04F4801F0E2FF0346DAB24D4B1A7014
:4046C00002E04B4801F0DAFF0023FB804A4B1B881946FB88464AD25C484B5A54FB880133FB80454B1B8801339AB2434B1A80424B1B88C3F30B039AB23F4B1A803E4B1A8828
:404700003F4B1B889A4205D03A4B1B789BB2FA889A42DBD13A4B1B88FB80FB88374AD35C0A2B04D0FB88354AD35C0D2B09D1354B1B8801339AB2334B1A80FB882F4A002132
:40474000D154FB880133FB80FB88C3F30B03FB80294B1B88FA889A42DFD10023FB80294B1B88002B40D0284B1B78002B3CD117E0FB88234A12881146204A515C234AD1544C
:40478000FB880133FB801E4B1B8801339AB21C4B1A801B4B1B88C3F30B039AB2184B1A80174B1B881A46154B9B5C002BE0D1FB88164A0021D154124B1B8801339AB2104B88
:4047C0001A800F4B1B88C3F30B039AB20C4B1A800C4B1B88013B9AB20A4B1A80FB88002B02D0094B01221A7000BF0837BD4680BDD091FF1F54AAFF1FC489FF1F1092FF1F2B
:4048000056AAFF1FC281FF1FCE91FF1F5CC2FF1F80B582B000AF786000BF01F01DFF0346002BFAD0786801F051FE00BF0837BD4680BD00BF80B582B000AF0346FB7100BFA1
:4048400001F00AFF0346002BFAD0FB79184601F0ABFE00BF0837BD4680BD00BF80B582B000AF786039603A680021786806F057FC00BF0837BD4680BD80B584B000AFF86076
:40488000B9607A607A68B968F86806F03DFC00BF1037BD4680BD00BF80B483B000AF0346FB71FEE780B487B000AF7860396000233B6100237B6127E07B699B007A681344B6
:4048C0001B68BB60BB68FB73BB6823F0FF03BB6014E03B695B003A6813441B781A46BB68134419463B695B003A6813445B780B703B6901333B61FB7B013BFB73FB7B002B03
:40490000E7D17B6901337B617B69242BD4D900BF1C37BD4680BC704780B582B000AF424B01221A80414B18221A70414B01221A80404B18221A70404B01221A803F4B18228F
:404940001A703F4B23221A803E4B18221A703E4B8F221A803D4B18221A703D4B8F221A803C4B18221A703C4B8F221A803B4B18221A703B4B06221A703A4B52221A703A4B5D
:404980003A4A1278D2B21A70394B40F20C721A80384B41F251221A800023FB7019237B6014E0FB785B00DAB2334B1B78DBB203F00103DBB21343DBB203F00303FB704FF4AB
:4049C000F07005F0F5FB7B68013B7B607B68002B02D0FB78032BE4D17B68002B02D10320FFF75AFF254B4FF480721A80234B07221A70234B00221A70224B48221A701F4BAA
:404A000000221A70204B00221A70204B02221A701F4A1F4B1B78DBB243F07F03DBB2137000BF0837BD4680BD80400040824000408440004086400040884000408A40004086
:404A40008C4000408E40004090400040924000409440004096400040984000409A4000400043004000420040A14600400F01004922420040204200402542004004400040A8
:404A800006400040084000400940004001400040A243004080B582B000AF3D4B1B78FB713C4B1B78BB713C4B1B787B713B4AFB7903F00703DBB21370394AFB791B09DBB222
:404AC0001370344ABB7943F00303DBB21370324A7B7943F00303DBB21370324B04221A70314B20221A70314B44F201021A80304B40221A702F4B40221A702F4B40221A7088
:404B00002E4B40221A702E4B40221A702D4B01221A702D4B80221A702C4B02221A702C4B04221A702B4B01221A702B4B02221A702A4B04221A702A4B10221A70294B202243
:404B40001A70294B01221A70284B20221A70284B20221A70274B4FF483721A80264B274A1A60274B41221A70264B02221A700A2000F0AAFD084A7B791370064ABB7913705D
:404B8000214B44221A7000BF0837BD4680BD00BFCF010049F8460040F94600406E5800406F5800401D5100402D5100403C5100400159004003590040095900400B590040C4
:404BC000005A0040135A0040185A0040205A0040305A0040805A00408A5A0040925A0040985A0040C85A0040CC5A0040235B00402B5B0040405B0040445B0040070101018C
:404C0000585B00405A5B00407658004080B483B000AF0346FB71FB79012B24D8FA79FB791344FB71FB79124A52F82330FA79104951F822201178FA790E48825C0A43D2B2A8
:404C40001A70FB790133FB71FB79094A52F82330FA79074951F822201178FA790548825C0A43D2B21A7000BF0C37BD4680BC7047A0BD0000B0BD000080B483B000AF034641
:404C8000FB71FB79012B28D8FA79FB791344FB71FB79144A52F82330FA79124951F822201178FA791048825CD243D2B20A40D2B21A70FB790133FB71FB790A4A52F82330DA
:404CC000FA79084951F822201178FA790648825CD243D2B20A40D2B21A7000BF0C37BD4680BC7047A0BD0000B0BD000080B483B000AF0346FB71FB79012B24D8FA79FB793C
:404D00001344FB71FB79124A52F82330FA79104951F822201178FA790E48825C0A43D2B21A70FB790133FB71FB79094A52F82330FA79074951F822201178FA790548825C74
:404D40000A43D2B21A7000BF0C37BD4680BC7047B4BD0000C4BD000080B483B000AF0346FB71FB79012B28D8FA79FB791344FB71FB79144A52F82330FA79124951F8222011
:404D80001178FA791048825CD243D2B20A40D2B21A70FB790133FB71FB790A4A52F82330FA79084951F822201178FA790648825CD243D2B20A40D2B21A7000BF0C37BD46EA
:404DC00080BC7047B4BD0000C4BD000080B483B000AF0346FB71FB79022B24D8FA79FB791344FB71FB79124A52F82330FA79104951F822201178FA790E48825C0A43D2B2F7
:404E00001A70FB790133FB71FB79094A52F82330FA79074951F822201178FA790548825C0A43D2B21A7000BF0C37BD4680BC7047C8BD0000E0BD000080B483B000AF034627
:404E4000FB71FB79022B28D8FA79FB791344FB71FB79144A52F82330FA79124951F822201178FA791048825CD243D2B20A40D2B21A70FB790133FB71FB790A4A52F8233017
:404E8000FA79084951F822201178FA790648825CD243D2B20A40D2B21A7000BF0C37BD4680BC7047C8BD0000E0BD000080B582B000AF72B60023FB7113E0FA7913465B0089
:404EC00013445B00584A13443B603B681A683B689B889BB219461046FFF7C0FCFB790133FB71FB79052BE8D9504B03F190431A464E4B03F19043943319461046FFF7D2FCF2
:404F00004B4B40F203121A8004214A48FFF7A6FC04214948FFF7A2FC04214848FFF79EFC04214748FFF79AFC04214648FFF796FC04214548FFF792FC444A444B1B78DBB22E
:404F400043F00203DBB21370414A414B1B78DBB243F00203DBB213703E4A3E4B1B78DBB243F04003DBB213703B4A3B4B1B78DBB243F01003DBB213702C4B03F1904303F2FF
:404F80004C63082219463548FFF776FC274B03F1904303F25463082219463148FFF76CFC224B03F1904303F25C630A2219462D48FFF762FC1D4B03F1904303F5CD630822D2
:404FC00019462948FFF758FC184B03F1904303F5CE63082219462548FFF74EFC134B03F1904303F5CF63082219462148FFF744FC204A204B1B78DBB243F00803DBB2137054
:405000001D4B61221A70FFF787FC1B4BC1221A70FFF740FD0E220F491848FFF72DFC00BF0837BD4680BD00BFE8BD0000400600004A58004000760040087600401076004071
:405040001876004020760040287600400350014013500140A0430040C243004002510040C2510040F05100401251004022510040325100402243004000480040B04300402E
:4050800080B500AF06F014F803461B680C2B00D1FEE7FEE780B584B000AF78600F4B1A687B6813441A460E4BD31A802B09DC0B4B1B68FB60094B1A687B681344074A136028
:4050C00007E005F0F5FF02460C2313604FF0FF33FB60FB6818461037BD4680BDCC80FF1F90C3FF1F80B586B000AF224B7B61224B3B61204B7B6135E03B691B68FB603B6919
:405100005B68BB603B699B683B6000237B600CE0FB681A68BB681A60BB680433BB60FB680433FB607B6804337B607A683B689A42EED13B69DB683B6000237B6008E0BB68D9
:4051400000221A60BB680433BB607B6804337B607A683B689A42F2D13B6910333B617B69013B7B617B69002BC6D105F0A7FFFEF783F8FEE70100000068C6000080B582B05A
:4051800000AF194B194A1A60194A194B1B6843F40073136000237B600FE07B68032B04D8144A7B6852F8233000E0134B13497A6841F822307B6801337B607B682F2BECD9E5
:4051C0000F4B1B78DAB20F4B1A700F4B0B4A1A60FFF76CFE00F01CF80C4B00221A6000BF0837BD4680BD00BF0CED00E00004FA0514ED00E000320000815000000080FF1F77
:40520000BC760040C480FF1F08ED00E0C080FF1F80B483B000AF134B7F221A70124B80221A707F23FB710CE0FB79DB0003F1804303F5F043FA79013AD2B21A70FB79013BA8
:40524000FB71FB79002BEFD1FB79DB0003F1804303F5F04300221A7000BF0C37BD4680BC704700BFD180FF1FD080FF1F80B485B000AF03460A46FB711346BB710123FB60D1
:40528000FB79172B2FD8BB79002B0ED0FB791A01184B1344FA791101164A0A441278D2B242F02002D2B21A700DE0FB791A01114B1344FA7911010F4A0A441278D2B222F08D
:4052C0002002D2B21A70FB791A010A4B1344FA791101084A0A441278D2B242F00102D2B21A700023FB60FB6818461437BD4680BC704700BF1070004080B485B000AF03466D
:405300000A46FB711346BB710123FB60FB79172B1BD8FB791A01104B13441B78DBB223F00E03FB72FB791A010B4B1344BA795200D2B252B202F00E0251B297F90B200A43BC
:4053400052B2D2B21A700023FB60FB6818461437BD4680BC704700BF1070004080B485B000AF0346FB710B46BB8013467B800123FB60BB8841F6FF72934202D14FF40053C7
:40538000BB807B8841F6FF72934202D14FF400537B80FB79172B17D8FB79DB0003F1804303F5EC430433BB60BB68BA881A80FB79DB0003F1804303F5EC430633BB60BB6807
:4053C0007A881A800023FB60FB6818461437BD4680BC704780B485B000AF03460A46FB711346BB710123FB60FB79172B07D8FB791A01064B1344BA795A720023FB60FB68C4
:4054000018461437BD4680BC704700BF1070004080B485B000AF03460A46FB711346BB710123FB60FB79172B15D8FB791A010D4B1344FA7911010B4A0A441279D2B251B212
:4054400097F9062002F0070252B20A4352B2D2B21A710023FB60FB6818461437BD4680BC704700BF1070004090B484B000AF0446084611461A462346FB710346BB710B4607
:405480007B7113463B710123FB60FB79172B34D8FB79DB0003F1804303F5EC43BA7902F07F02D1B27A79D201D2B20A43D2B21A70FB79DB0003F1804303F5EC433A7E1201C7
:4054C000D1B23A7902F00F02D2B20A43D2B25A70FB79DB0003F1804303F5EC433A7F02F00F02D2B29A70FB79DB0003F1804303F5EC430022DA700023FB60FB6818461037BE
:40550000BD4690BC704700BF80B582B000AFFF23FB7104F055FE0346BB71104B1B78182B12D90F4B1B78FB710C4B1B78013BDAB20A4B1A70FB79DB0003F1804303F5F0430F
:405540001B78DAB2064B1A70BB79184604F03CFEFB7918460837BD4680BD00BFD080FF1FD180FF1F90B484B000AF0446084611461A462346FB710346BB800B46BB711346DF
:40558000FB700123FB6097F90730002B23DBBB8823F47F6323F00F039BB2002B1BD1FB79DB0003F1804303F5F043BB60BB68BA881A80FB79DB0003F1804303F5F043BA799D
:4055C0009A70FB79DB0003F1804303F5F043FA78DA700023FB60FB6818461037BD4690BC704700BF80B485B000AF0346FB710B46BB8013467B800123FB6097F90730002B4B
:4056000017DBFB79DB0003F1804303F5F0430433BB60BB68BA881A80FB79DB0003F1804303F5F0430633BB60BB687A881A800023FB60FB6818461437BD4680BC704700BF73
:4056400080B485B000AF03460A46FB711346BB710123FB60FB79172B21D8BB79002B0ED0FB791A01114B1344FA7911010F4A0A441278D2B242F01002D2B21A700DE0FB79EE
:405680001A010A4B1344FA791101084A0A441278D2B222F01002D2B21A700023FB60FB6818461437BD4680BC704700BF1070004080B483B000AF0346FB7101BE00BF0C3733
:4056C000BD4680BC704700BF80B582B000AF0346FB80FB88054A127802FB03F3184604F067FD00BF0837BD4680BD00BFE080FF1F80B584B000AF03463960FB710F4B1B6858
:40570000FB60FB791F2B02D90020FFF7D1FFFB7903F01F0310339B00FA6813441B68BB60FB7903F01F0310339B00FA6813443A681A60BB6818461037BD4680BD08ED00E0B8
:4057400080B582B000AF03460A46FB711346BB71BB79072B02D90020FFF7AAFFFB791F2B02D90020FFF7A4FFFB7903F01F0303F1604303F56443BA795201D2B21A7000BF25
:405780000837BD4680BD00BF80B483B000AF7860264B1B78DBB21A467B681A60244B1B78DBB21B027A6812681A437B681A60214B1B78DBB21B047A6812681A437B681A60EC
:4057C0001D4B1B78DBB21B067A6812681A437B681A607B680433194A1278D2B21A60184B1B78DBB21A027B6804337968043109680A431A60134B1B78DBB21A047B68043328
:405800007968043109680A431A600F4B1B78DBB21A067B6804337968043109680A431A6000BF0C37BD4680BC704700BF0301004904010049EC4600400201004901010049BD
:4058400000010049050100490601004980B500AF064B1B78002B04D100F00AF8034B01221A7000F025F800BF80BD00BF9881FF1F80B500AF07210120FFF762FF0949012094
:40588000FFF736FF084A084B1B78DBB243F00603DBB213700C2000F071F8044B00221A8000BF80BD515A000001590040A4C2FF1F80B582B000AF04F083FC0346FB71264AA9
:4058C000254B1B78DBB243F00103DBB21370234A224B1B78DBB243F00103DBB21370204B1B78BB71BB7943F00203BB71BB7943F00103BB711A4ABB7913701A4B04221A7007
:40590000194A194B1B78DBB223F04003DBB21370154A154B1B78DBB243F00303DBB21370124B0E221A70124B02221A70114A114B1B78DBB243F00803DBB213700A20FFF78B
:40594000C3FE0D4B02221A60FB79184604F03CFC00BF0837BD4680BDAB430040BB4300400359004006590040055900400059004014460040275B004080E200E080B584B04F
:4059800000AF0346FB71FB790A2B07D00C2B02D0082B06D008E0C423FB730BE08423FB7308E04423FB7305E0C423FB730020FFF77FFE00BF054AFB7B1370FB79184600F061
:4059C00007F800BF1037BD4680BD00BF0259004080B584B000AF0346FB71FB790A2B08D00C2B02D0082B08D00BE04FF48053FB600DE04FF48063FB6009E04FF48073FB6062
:405A000005E00023FB600020FFF752FE00BF0C4B00221A80FB6842F2107202FB03F303F6C413084A82FB0312D212DB17D31A064A1360064B00221A8000BF1037BD4680BD32
:405A40009EC2FF1FAD8BDB68A0C2FF1F9CC2FF1F80B400AF00BFBD4680BC704780B500AF064B1B78002B04D100F00AF8034B01221A7000F025F800BF80BD00BF9981FF1FE4
:405A800080B500AF07210020FFF75AFE09490020FFF72EFE084A084B1B78DBB243F00603DBB213700C2000F071F8044B00221A8000BF80BD615C000009590040A8C2FF1F54
:405AC00080B582B000AF04F07BFB0346FB71264A254B1B78DBB243F00203DBB21370234A224B1B78DBB243F00203DBB21370204B1B78BB71BB7943F00203BB71BB7943F0BE
:405B00000103BB711A4ABB7913701A4B04221A70194A194B1B78DBB223F04003DBB21370154A154B1B78DBB243F00303DBB21370124B0E221A70124B02221A70114A114BB7
:405B40001B78DBB243F00803DBB213700A20FFF7BBFD0D4B01221A60FB79184604F034FB00BF0837BD4680BDAB430040BB4300400B5900400E5900400D59004008590040B9
:405B8000164600402F5B004080E200E080B584B000AF0346FB71FB790A2B07D00C2B02D0082B06D008E0C423FB730BE08423FB7308E04423FB7305E0C423FB730020FFF794
:405BC00077FD00BF054AFB7B1370FB79184600F007F800BF1037BD4680BD00BF0A59004080B584B000AF0346FB71FB790A2B08D00C2B02D0082B08D00BE04FF48053FB6003
:405C00000DE04FF48063FB6009E04FF48073FB6005E00023FB600020FFF74AFD00BF0C4B00221A80FB6842F2107202FB03F303F6C413084A82FB0312D212DB17D31A064A17
:405C40001360064B00221A8000BF1037BD4680BDACC2FF1FAD8BDB68B0C2FF1FAAC2FF1F80B400AF00BFBD4680BC704780B582B000AF03460A46FB711346BB71094B1B781E
:405C8000002B04D100F010F8064B01221A70BA79FB791146184600F0D9F800BF0837BD4680BD00BF9A81FF1F80B582B000AF04F087FA0346FB71544A534B1B78DBB243F0CC
:405CC0000103DBB21370514A504B1B78DBB243F00103DBB213704E4B01221A704D4B02221A704D4A4C4B1B78DBB203F07F03DBB213700020FFF7E8FC484A484B1B78DBB255
:405D000023F00603DBB21370454A454B1B78DBB223F02003DBB21370404A404B1B78DBB243F00103DBB213700120FFF7CDFC2820FFF7CAFC3B4A3B4B1B78DBB203F07F03B2
:405D4000DBB21370374A374B1B78DBB223F04003DBB21370314A314B1B78DBB243F00203DBB213700220FFF7AFFC2C4A2B4B1B78DBB243F00403DBB213702B4B00221A70F0
:405D80002A4B00221A70FB79184604F01DFA07211720FFF7D5FC26491720FFF7A9FC07211820FFF7CDFC23491820FFF7A1FC07211520FFF7C5FC20491520FFF799FC0721C3
:405DC0000220FFF7BDFC1D490220FFF791FC07210320FFF7B5FC1A490320FFF789FC07210420FFF7ADFC17490420FFF781FC07210C20FFF7A5FC14490C20FFF779FC00BF54
:405E00000837BD4680BD00BFA5430040B54300409D60004009600040106000409443004012600040F85100408460004085600040C56E0000AD670000B96E0000D16D0000E7
:405E4000196E0000656E0000D16E000080B582B000AF03460A46FB711346BB712E4AFB7913702E4B00221A702D4B00221A702D4B00221A702C4B00221A702C4B00221A70C7
:405E80002B4B00221A702B4B00221A702A4B4FF400021A60284B4FF080721A60264B4FF400121A60244B04221A60234B08221A60214B10221A60BB79002B02D0012B09D09D
:405EC00011E01E4A1D4B1B78DBB223F00103DBB2137011E0194A194B1B78DBB243F00103DBB2137008E0154A144B1B78DBB243F00103DBB2137000BF114B03221A70114B48
:405F000080221A70012004F053F90F4B04221A7000BF0837BD4680BDCDC2FF1FD0C2FF1FECC2FF1FEFC2FF1FE4C2FF1FEEC2FF1FF1C2FF1FCCC2FF1F00E100E0096000401B
:405F400028600040086000401260004080B400AF0F4B00221A700F4B00221A700E4B00221A700E4B00221A700D4B00221A700D4B00221A700C4B00221A700C4B03221A70F5
:405F80000B4B80221A7000BFBD4680BC704700BFD0C2FF1FECC2FF1FEFC2FF1FE4C2FF1FEEC2FF1FF1C2FF1FCCC2FF1F286000400860004080B400AF034B1B78DBB2184672
:405FC000BD4680BC704700BFEFC2FF1F80B483B000AF0346FB71FA79064913465B0013449B000B4401331B78DBB218460C37BD4680BC7047F4C2FF1F80B485B000AF03467B
:40600000FB710023FB81FB79002B1CD0FB79082B19D8104AFB791B0113441B78DBB29BB203F00F03FB81FB891B029AB20949FB791B010B4401331B78DBB29BB21343FB8172
:40604000FB89023BFB81FB8918461437BD4680BC704700BFFC5F0040B0B485B000AF03463960FB711346BB80FB79002B6DD0FB79082B6AD8B988FA79364813465B0013443A
:406080009B00034406331B889BB2C3F5007399420CD9FA792F4913465B0013449B000B4406331B889BB2C3F50073BB802A4CF979BB881B0A9BB2D8B2FA79264D13465B00BA
:4060C00013449B002B4403331B78DBB20343DAB20B0123441A70204AFB79B988C9B21B01134401330A461A703B68002B13D00023FB810CE01948FB79FA8939680A441278F2
:406100001B01034408331A70FB890133FB81FA89BB889A42EED3FA790E4913465B0013449B000B44013300221A700B48F979FA79084C13465B0013449B00234405331B789D
:40614000DAB20B01034402331A7000BF1437BD46B0BC7047F4C2FF1FFC5F00407060004080B584B000AF03463960FB711346BB803B68002B30D0FB79002B2DD0FB79082BC7
:406180002AD8FB791846FFF737FF03461A46BB88934205D9FB791846FFF72EFF034600E0BB88BB800023FB810DE0FB893A6813440D49FA7912010A4408321278D2B21A709F
:4061C000FB890133FB81FA89BB889A42EDD3FB79184600F00BF801E00023BB80BB8818461037BD4680BD00BF7060004090B482B000AF0346FB71FB79002B1CD0FB79082B02
:4062000019D8FA790E4913465B0013449B000B44013300221A700B48F979FA79084C13465B0013449B00234405331B78DAB20B01034402331A7000BF0837BD4690BC7047C8
:40624000F4C2FF1FFC5F004080B582B000AF0023FB71314B1B79DBB2184600F067F80346BB712D4B1B78DBB25BB2002B15DA2A4B5B78DBB2212B00D048E0284B07221A803D
:40628000BA791346DB009B1A254A1344234A536000F006FC0346FB7138E01F4B5B78DBB2202B02D0222B1AD030E01C4B07221A80BA791346DB009B1A194A1344174A5360DB
:4062C000BB79BA7917498A5CD2B242F00102D1B2144AD15400F062FC0346FB7116E0BB790D4A9278D2B291B20F4A22F81310BB79BA790C498A5CD2B242F00202D1B2094A15
:40630000D15400F0E9FC0346FB7100BFFB7918460837BD4680BD00BF00600040D8C2FF1FE880FF1FB4C2FF1FC8C2FF1F80B485B000AF0346FB710023FB73FF23BB7317E020
:40634000FB7B104AD35C7B737A7B0F4913465B0013449B000B440A331B78DBB2FA799A4203D1FB7BBB730223FB73FB7B0133FB73FB7B012BE4D9BB7B18461437BD4680BCA2
:40638000704700BFBCC2FF1FF4C2FF1F80B582B000AF0023BB71224B00221A70214B00221A70204B00225A700023FB7110E0FB791D4AD35C7B717B79002B06D07B79082B79
:4063C00003D87B791846FFF711FFFB790133FB71FB79012BEBD9154B1B78DBB2002B18D0114B1B78DBB2002B13D0114B1B78DBB2002B0ED00D4B1B78DBB2082B09D80A4B6F
:406400001B78DBB2082B04D8094B1B78DBB2082B01D90123BB71BB7918460837BD4680BD9B81FF1FB4C2FF1FC0C2FF1FB8C2FF1FBCC2FF1F80B584B000AF78600B467B806D
:40644000144B1B781A46144B9B5CFB73FA7B134913465B0013449B000B4408331B889BB27A889A420CD9FA7B0C4913465B0013449B000B4408331B887B800020FFF718F993
:406480007A88FB7B79681846FFF7E6FD00BF1037BD4680BD9B81FF1FB8C2FF1FF4C2FF1F80B485B000AF78600023FB8102E0FB890133FB81FB897A6813441B78002BF6D179
:4064C000FB8918461437BD4680BC704780B584B000AF78600023BB81304B1B781A46304B9B5CFB727868FFF7DBFF0346FB81FA7A2C4913465B0013449B000B4408331B88AC
:406500009BB2FA899A420AD9FA7A264913465B0013449B000B4408331B889BB200E0FB893B81BB897A68D1183A89FB7A1846FFF793FDFA893B89D31AFB81FB89002B0CD142
:40654000FA7A184913465B0013449B000B4408331B889BB23A899A4219D1BA893B891344BB8100BFFA7A0F4913465B0013449B000B4401331B78DBB2002BF3D0FB89002B92
:4065800005D1FB7A002200211846FFF765FDFB89002BACD100BF1037BD4680BD9B81FF1FB8C2FF1FF4C2FF1F80B584B000AF0346FB71FB79FB73084B1B781A46074B9B5C41
:4065C000DBB207F10F0101221846FFF745FD00BF1037BD4680BD00BF9B81FF1FB8C2FF1F80B582B000AF104B1B781A460F4B9B5C7B717A790E4913465B0013449B000B4496
:4066000001331B78DBB2012B06D17B791846FFF7F3FC0346FB8001E00023FB80FB8818460837BD4680BD00BF9B81FF1FC0C2FF1FF4C2FF1F80B500AF054B1B781A46054B45
:406640009B5CDBB21846FFF7C1FC0346184680BD9B81FF1FC0C2FF1F80B500AF054B1B781A46054B9B5CDBB21846FFF7AFFC0346184680BD9B81FF1FB8C2FF1F80B584B0AE
:4066800000AF78600D4B1B781A460D4B9B5CFB73FA7B0C4913465B0013449B000B4408331B889AB2FB7B79681846FFF759FD0346BB81BB8918461037BD4680BD9B81FF1F79
:4066C000C0C2FF1FF4C2FF1F80B483B000AF0023FB710F4B1B78DBB2002B13D10D4B1B781A460D4B9B5CDBB2002B0BD0094B1B781A46094B9B5CFB71064B1B781A46064B38
:4067000000219954FB7918460C37BD4680BC7047D0C2FF1F9B81FF1FB4C2FF1F80B485B000AF78600B46FB701346BB707B68DB7803F00303FB737B689B785BB2002B1ADAD3
:40674000FB7B032B0AD0BB7803F001031449FA78CA54BB7843F00103BB701BE0BB789B08DBB203F001030F49FA78CA54BB7843F00403BB700EE0FB7B032B0BD0BB785B0817
:40678000DBB203F001030849FA78CA54BB7843F00203BB70BB7818461437BD4680BC7047B8C2FF1FBCC2FF1FC0C2FF1F80B582B000AF374B1B78BB71BB7903F01003002B7C
:4067C00062D00123FB7197F90630002B12DABB7903F00F03012B02D00023FB711CE000F061F82C4B1B78DBB25BB2002B14DA0023FB7111E0BB7903F04003002B02D000F05B
:4068000095F809E0BB7903F02003002B02D000F0B3F801E00023FB71FB79002B34D01C4B1B78BB7197F90630002B2DDB1A4B1B78DAB21A4B1B78DBB21343BB71184ABB79AD
:406840001370174B1B78DBB2BA799A421CD1114B1B78FB710E4B1B78DBB223F07F03BB71BB79002B0AD10A4B0A4A1278D2B21A70074B1B78DBB203F00F03FB71054B1B7841
:40688000DBB2FA799A42E2D100BF0837BD4680BD28600040EDC2FF1F62C3FF1FF0C2FF1F2960004080B582B000AF1D4B1B78FB711B4AFB7913701A4B1B78FB7197F9073096
:4068C000002B03DA174AFB79137025E0022000F045FA154B1B78DBB203F06003202B08D0402B0BD0002B0ED100F0F8FA0346FB710CE003F06DFC0346FB7107E001F000FB32
:406900000346FB7102E00023FB7100BFFB79002B02D1044B03221A7000BF0837BD4680BD28600040EDC2FF1F0060004080B500AF104B1B78DBB2062B19D801A252F823F00E
:406940006F6900006F6900005D6900006F690000636900006F6900006969000000F0F8F806E000F0A7F903E000F0D2F900E000BF00BF80BDD0C2FF1F80B500AF124B1B7840
:40698000DBB2062B1DD801A252F823F0C3690000C3690000A9690000C3690000AF690000C3690000B569000000F0D8F80AE000F027F907E0032000F0D1F9044B03221A70B0
:4069C00000E000BF00BF80BDD0C2FF1FEDC2FF1F80B483B000AF0023FB71294B1B78DBB29AB2284B1B889BB213449AB2254B1A8015E02549FB79254A52681278D2B2CA54BE
:406A0000224B5B680133214A5360FB790133FB711E4B1B889BB2013B9AB21C4B1A801B4B1B889BB2002B02D0FB79072BE1D9144B1B78DBB2082B02D0FB79002B0FD0144BCA
:406A40001B78DBB283F07F03DB43DAB2104B1A70104B0F221A70104B02221A7005E00D4B02221A700C4B02221A700C4AFB791370034AFB79137000BF0C37BD4680BC7047DA
:406A8000CCC2FF1FCEC2FF1F00600040D8C2FF1F62C3FF1FEDC2FF1FD0C2FF1FF0C2FF1F80B582B000AF164B1B889BB2002B02D100F02EF81EE0134B02221A70124B002290
:406AC0001A7000F06BF9114BDB79DBB29BB21B029AB20E4B9B79DBB29BB21343FB80084B1B889BB2FA889A4202D2054AFB881380FFF76EFF012318460837BD4680BD00BFB0
:406B0000D8C2FF1FD0C2FF1F62C3FF1F0060004080B400AF094B02221A70094B80221A70084B0F221A70084B00221A70074B00221A7001231846BD4680BC7047D0C2FF1F72
:406B400062C3FF1FEDC2FF1FCCC2FF1FF0C2FF1F80B500AFFFF73CFF00BF80BD80B500AF0A4B1B78DBB29AB2094B1B889BB213449AB2074B1A80074B00221A70012000F0F1
:406B8000EDF8054B03221A7000BF80BDCCC2FF1FCEC2FF1FD0C2FF1FEDC2FF1F80B582B000AF124B04221A70114B80221A7000F0F5F8104BDB79DBB29BB21B029AB20D4B4C
:406BC0009B79DBB29BB21343FB800B4B1B889BB2FA889A4202D2084AFB881380074B0B221A70012318460837BD4680BDD0C2FF1F62C3FF1F00600040D8C2FF1FEDC2FF1FD4
:406C000080B483B000AF0023BB71234B1B78DBB203F00F03DBB2023BFB71FB799AB21F4B1B889BB213449AB21C4B1A8018E01C4B5B681C49BA798A5CD2B21A70184B5B6894
:406C40000133174A5360BB790133BB71FB79013BFB71134B1B889BB2013B9AB2104B1A800F4B1B889BB2002B02D0FB79002BDED10D4AFB7913700D4B1B78DBB283F07F0301
:406C8000DB43DAB2094B1A70094B0B221A7000BF0C37BD4680BC704729600040CEC2FF1FD8C2FF1F00600040F0C2FF1F62C3FF1FEDC2FF1F80B500AF054B00221A70012099
:406CC00000F04CF8034B03221A7000BF80BD00BFD0C2FF1FEDC2FF1F80B400AF084B06221A70084B06221A70074B80221A70074B00221A7001231846BD4680BC704700BF8B
:406D0000D0C2FF1FEDC2FF1F62C3FF1FF0C2FF1F80B500AF0D4B1B78DBB2002B0AD00C4A0A4B1B78DBB263F07F03DBB21370074B00221A70074B00221A70012000F00EF89F
:406D4000054B03221A7000BF80BD00BFEEC2FF1F08600040D0C2FF1FEDC2FF1F80B483B000AF0346FB710B4B9B68002B0CD0094B9B68FA791A70074B9B68074A128892B263
:406D80005A80044B00229A6000BF0C37BD4680BC704700BFD8C2FF1FCEC2FF1F80B400AF094B00221A80094B9B68002B07D0074B9B6800221A70054B9B6800225A8000BF16
:406DC000BD4680BC704700BFCEC2FF1FD8C2FF1F80B400AF0D4B01221A700D4B9B7C0D4B1B7BDBB203F00303012B08D0094BDB7BDBB283F07F03DB43DAB2064BDA73054BE5
:406E000001225A7300BFBD4680BC70470B600040FC5F0040F4C2FF1F80B400AF0E4B02221A700E4B93F822300D4B1B7EDBB203F00303012B08D00A4BDB7EDBB283F07F03C8
:406E4000DB43DAB2064BDA76054B01225A7600BFBD4680BC704700BF0B600040FC5F0040F4C2FF1F80B400AF104B04221A70104B93F832300F4B93F82430DBB203F0030301
:406E8000012B0AD00B4B93F82730DBB283F07F03DB43DAB2074B83F82720064B012283F8252000BFBD4680BC704700BF0B600040FC5F0040F4C2FF1F80B400AF00BFBD46ED
:406EC00080BC704780B500AFFFF740F800BF80BD80B500AF01F00CFB00BF80BD80B586B000AF0023FB759D4B1B78FB7100233B619B4B00221A8097F90730002B80F20481DB
:406F0000964B5B78DBB20A2B00F21B8201A252F823F000BF5F7000004373000043730000437300004373000043730000416F000043730000D370000043730000E970000078
:406F4000864BDB78DBB2012B0ED100F049FEB860BB685B68824A5360814B12221A80FFF79FFD0346FB75EEE17C4BDB78DBB2022B25D17A4B9B78DBB2184600F009FEB86051
:406F8000BB68002B00F0DF81BB685B68744A5360734B5B6803331B78DBB29BB21B029AB26F4B5B6802331B78DBB29BB213439AB26B4B1A80FFF774FD0346FB75C3E1674BC8
:406FC000DB78DBB2032B45D10023FB73654B3B6109E03B691B78BB71BB793A6913443B61FB7B0133FB735D4B9B78DBB2FA7B9A4204D23B691B78DBB2002BEAD1574B9B7894
:40700000DBB2EE2B01D1584B3B61544B9B78DBB2002B0BD0514B9B78DAB2544B1B7C9A4204D1534800F0ACF9514B3B613B691B78DBB2002B00F087813B691B78DBB29AB2D3
:40704000474B1A80464A3B695360FFF729FD0346FB7578E103F0BCF80346FB7573E1FB7903F00303002B20D0022B00D030E03C4B02221A80394B1B79DBB203F07F023D49A2
:4070800013465B0013449B000B4402331B78DAB2394B1A70384B00225A70314B364A5A60FFF7FEFC0346FB7512E02D4B02221A80324B1B78DAB2304B1A702F4B00225A707C
:4070C000274B2D4A5A60FFF7EBFC0346FB7500BF40E1234B01221A80214B294A5A60FFF7DFFC0346FB7535E11D4B01221A801B4B1B79DBB21A46234B1344194A5360FFF736
:40710000CFFC0346FB7525E1144B5B78DBB2013B0A2B00F21A8101A252F823F0277200004B730000B57200004B730000497100004B7300004B7300004B7300008D710000DA
:407140004B730000E3710000044B9B78DAB20E4B1A70FFF7C1FD0346FB75FBE000600040D8C2FF1F70C3000078C4000018C3000068C3FF1FF4C2FF1F9C81FF1FF1C2FF1F19
:40718000EFC2FF1F60C3FF1FEEC2FF1F744B9B787B717B79002B06D07B79013BDBB2184600F0F6FCB8607B79002B02D0BB68002B03D17B79002B40F0CA806A4B1B78DBB2A8
:4071C0007A799A4208D0674A7B791370664B01221A70012000F0DCF9FFF77EFD0346FB75B5E000F055FE0346002B00F0B2805C4B1B793B715A4B1B79DAB25C4B1A703B7953
:407200005B4AD35CDAB23B795A49CB5CDBB29A4204D0554B01221A7000F08CFBFFF75CFD0346FB7595E0FB7903F00303012B20D0012B0CD3022B00D03BE0494B9B78DBB212
:40724000002B31D100F078FD0346FB752CE0444B9B78DBB2012B29D1474B1B78DBB223F00203DAB2444B1A70FFF736FD0346FB751CE03B4B1B79DBB2012B19D8384B9B78BB
:40728000DBB2DB43DBB2364A1279D2B2114610463A4A125CD2B21340DAB2384B5A54FFF71BFD0346FB7503E000BF53E000BF51E000BF4FE0FB7903F00303012B20D0012BA5
:4072C0000CD3022B00D03BE0254B9B78DBB2002B31D100F0BDFC0346FB752CE0204B9B78DBB2012B29D1244B1B78DBB243F00203DAB2214B1A70FFF7EFFC0346FB751CE0DC
:40730000174B1B79DBB2012B19D8154B9B78DBB2DB43DBB2124A1279D2B211461046174A125CD2B21340DAB2144B5A54FFF7D4FC0346FB7503E000BF0CE000BF0AE000BF36
:4073400008E000BF06E000BF04E000BF02E000BF00E000BFFB7D18461837BD4680BD00BF00600040EFC2FF1FECC2FF1FE4C2FF1FD4C2FF1F60C3FF1FF1C2FF1F64C3FF1FB0
:40738000B0B58AB000AF7860324B07F114041D460FCD0FC42B682370002387F826307B68002B52D07B6822221A707B68013303221A7007F10C031846FEF7E6F9022387F866
:4073C00027303EE097F827307A68134497F8262007F128010A4412F81C2C1209D2B207F128010A4412F8142C1A7097F8273001337A68134400221A7097F8273002337A6885
:40740000134497F8262007F128010A4412F81C2C02F00F0207F128010A4412F8142C1A7097F8273003337A68134400221A7097F82630013387F8263097F82730043387F88E
:40744000273097F82730212BBCD900BF2837BD46B0BD00BF0CBE000090B482B000AF0123FB7180E0464AFB791B0113440C221A70FA79444913465B0013449B000B44053366
:407480001B78DBB2002B1CD0FA793E4913465B0013449B000B4404331B78DBB25BB2002B07DA394AFB791B01134402330C221A700EE0354AFB791B011344023308221A70A2
:4074C00006E0314AFB791B011344023380221A702B48F979FA792B4C13465B0013449B00234406331B889BB2DAB20B01034406331A702348F979FA79224C13465B00134473
:407500009B00234406331B889BB21B0A9BB2DAB20B01034407331A701948F979FA79194C13465B0013449B00234406331B889BB2DAB20B01034404331A701148F979FA794C
:40754000104C13465B0013449B00234406331B889BB21B0A9BB2DAB20B01034405331A70FB790133FB71FB79082B7FF67BAF074BFF221A7000BF0837BD4690BC704700BF4C
:4075800070600040F4C2FF1FFC5F00400A60004080B58AB000AF0346FB7100237B84002387F8273050E097F82720B34913465B0013449B000B4400221A7097F82720AE4944
:4075C00013465B0013449B000B44023300221A7097F82720A84913465B0013449B000B44033300221A7097F82720A34913465B0013449B000B44083300221A8097F8272093
:407600009D4913465B0013449B000B440A3300221A7097F82720984913465B0013449B000B44013300221A7097F82720924913465B0013449B000B44053300221A7097F8E1
:407640002730013387F8273097F82730082BAAD9FB79002B16D0002387F825300EE097F82530864A0021D15497F82530844A0021D15497F82530013387F8253097F82530E1
:40768000012BECD97F4B1B78DBB2002B00F04A810023FB767B4B1B78DBB2013BDBB2184600F076FA78617B695B683B613B6907331B7803F04003002B08D0734B1B78DBB264
:4076C00043F00103DAB2704B1A7007E06E4B1B78DBB223F00103DAB26B4B1A707B6908337B617B691B7887F82730012387F82530B6E07B695B68FB61002387F82630A3E08B
:4077000097F82520FB699B7803F07F039A4240F0938097F82520584913465B0013449B000B4408331B889AB2FB699B889A420CD297F82520FB6998884F4913465B0013449A
:407740009B000B44083302461A80FB691B781A464A4B9B5CDAB2FB695B789A426CD197F82520FB699878444913465B0013449B000B44043302461A7097F82520FB69D878E8
:407780003D4913465B0013449B000B4402461A70FB69DB7803F00303FB73FB699B785BB2002B1CDA97F82520FB7B012B01D1072000E00D20304913465B0013449B000B44CF
:4077C000053302461A7097F825202B4913465B0013449B000B44013301221A701BE097F82520FB7B012B01D1052000E00920224913465B0013449B000B44053302461A7086
:4078000097F825201C4913465B0013449B000B44013300221A70FB699B790A2B03D0FB699B79022B08D1FA7E97F825301946F869FEF774FF0346FB76FB690833FB6197F874
:407840002630013387F8263097F8262097F827309A42FFF455AF97F82530013387F8253097F82530082B7FF644AF7B695B68FB61002387F8253020E0F4C2FF1F60C3FF1FA1
:40788000D4C2FF1FEFC2FF1FF1C2FF1FFB699B7803F07F02FB691878244913465B0013449B000B440A3302461A70FB690833FB6197F82530013387F8253097F8252097F8DA
:4078C00027309A42E2D300F09DF90246184B1A6000237B84012387F827301DE097F82720124913465B0013449B000B4406337A8C1A8097F827200D4913465B0013449B000B
:407900000B4408331B889AB27B8C13447B8497F82730013387F8273097F82730082BDDD9FFF79AFD00BF2837BD4680BDF4C2FF1FE8C2FF1F90B585B000AF8F4B1B78DBB208
:40794000002B00F015818C4B1B78DBB2013BDBB2184600F01DF978607B6808337B607B681B78FB707B685B68BB60844B1B78BB700023FB73F7E0BB681B78BA789A4240F0D6
:40798000EC80BB787E4AD35CDAB2BB685B789A4240F0E380BB689B7803F07F037B70BB68DB7803F003033B707A78764913465B0013449B000B44033300221A707A78BB68F3
:4079C0009878704913465B0013449B000B44043302461A707A78BB68D8786A4913465B0013449B000B4402461A707A78BB689888644913465B0013449B000B440833024687
:407A00001A80BB689B785BB2002B1ADA7A783B78012B01D1072000E00D205A4913465B0013449B000B44053302461A707A78554913465B0013449B000B44013301221A706B
:407A400019E07A783B78012B01D1052000E009204C4913465B0013449B000B44053302461A707A78474913465B0013449B000B44013300221A70444A7B781B011344023328
:407A800001221A70404879787A783E4C13465B0013449B00234408331B889BB21B0A9BB2DAB20B0103441A70374879787A78354C13465B0013449B00234408331B889BB2F6
:407AC000DAB20B01034401331A70304879787A782C4C13465B0013449B00234406331B889BB2DAB20B01034406331A70274879787A78244C13465B0013449B002344063336
:407B00001B889BB21B0A9BB2DAB20B01034407331A701E4879787A781A4C13465B0013449B00234406331B889BB2DAB20B01034404331A70154879787A78124C13465B0069
:407B400013449B00234406331B889BB21B0A9BB2DAB20B01034405331A70BB680833BB60FB7B0133FB73FA7BFB789A42FFF403AF00BF1437BD4690BDEFC2FF1FE4C2FF1F89
:407B800060C3FF1FF4C2FF1FFC5F00407060004080B485B000AF0346FB710F4B1B78DBB20E4ADB0013445B68FB60FB681033FB60FB681B78FA799A4202D30023FB6005E098
:407BC000FB79DB00FA6813445B68FB60FB6818461437BD4680BC7047CDC2FF1F70C4000080B400AF054B1B78DBB2054ADB0013445B681846BD4680BC704700BFCDC2FF1F25
:407C000070C4000080B584B000AF104B1B78DBB2013BDBB21846FFF7BBFFB860BB68002B0DD0BB685B681B79FB71FB790233DB00BA681344BB60BB685B68FB6001E0002320
:407C4000FB60FB6818461037BD4680BDEFC2FF1F80B582B000AF0023FB71344B1B79DBB203F07F03BB71BB79002B5AD0BB79082B57D8BA79B9792E480B465B000B449B001C
:407C8000034402331B78DBB243F00103D8B2284913465B0013449B000B44023302461A70BA79234913465B0013449B000B44033300221A70BA79B9791D480B465B000B44BF
