:400000000080002011000000011F0000011F000080B500AF024A034B1B68136001F0A2FFBC760040FA46004010B5054C237833B9044B13B10448AFF300800123237010BD35
:400040007881FF1F00000000348B0000084B10B51BB108490848AFF300800848036803B910BD074B002BFBD0BDE81040184700BF000000007C81FF1F348B0000C880FF1F24
:400080000000000000000000B0B58AB000AF01F037F901F0E1F901F0A7FAAD4B1B889BB2DBB2184607F0BEFC0346FB61A94B1B78184607F0B7FC0346F969184607F00AFDB5
:4000C0000346184607F022F99FA3D3E9002307F09BFA03460C4625461C469F4B1B78184607F0A0FC0346184607F010F902460B462046294606F0ACFF03460C4618462146AE
:4001000007F08AFB0346FB619449F86907F09EFE0346002B01D0914BFB61F86907F0A0FE0346DAB28E4B1A708E4B1B78002B01F099808D498D4807F027FFB861BB691B78E9
:40014000692B04D18A4801F00FFB01F088B8BB691B78442B40F0AF808349002007F014FFB861BB691B784F2B11D17F49002007F00BFFB8613B1D1A467E49B86907F0D0FE0A
:40018000BB88DBB2184605F067FA01F068B8BB691B78492B0AD1492001F0F8FA05F06CFA0346184601F0F2FA01F059B8BB691B78412B0DD1704B01221A70492001F0E6FAD4
:4001C00005F05AFA0346184601F0E0FA01F047B8BB691B78612B04D1674B00221A7001F03EB8BB691B78462B27D15F49002007F0CBFEB8613B1D1A465E49B86907F090FE31
:40020000BB881B027B615849002007F0BDFEB8613B1D1A465749B86907F082FEBB881A467B6913447B617B699BB2013B9BB20121184605F02DFA01F012B8BB691B78442B15
:400240001BD14949002007F09FFEB8613B1D1A464849B86907F064FEBB88F92B01D9F923BB80BB88DBB2184605F06EFBBB88DBB2184605F079FB00F0F2BFBB691B78212B11
:4002800040F0ED873849002007F07EFEB861BB691B78442B00F0E387BB691B78522B00F0DE87BB691B78462B00F0D987BB691B78482B00F0D4BFBB691B78572B40F0CC8486
:4002C0002949002007F060FEB861BB691B78532B31D12549002007F057FEB8613B1D1A462449B86907F01CFEBB881B023B611E49002007F049FEB8613B1D1A461D49B86964
:4003000007F00EFEBB881A463B6913443B611649002007F039FEB8613B1D1A461549B86907F0FEFDBB88D9B2144A3B6913440A461A7000F094BFBB691B78502B6FD10023B8
:40034000BB8466E0AFF300800000000000E06F40046500409481FF1F9581FF1F00007F43D191FF1FD291FF1F388B000068C2FF1F3C8B0000508B0000C889FF1F14A2FF1F84
:40038000BB8CA54AD35C184607F04CFB0446A34B1B78184607F046FB03461946204607F099FB0346184606F0B1FF99A3D3E9002307F02AF903460C4625461C46984B1B78E2
:4003C000184607F02FFB0346184606F09FFF02460B462046294606F03BFE03460C461846214607F019FA0346FB618E49F86907F02DFD0346002B01D08A4BFB61BC8CF8691F
:4004000007F02EFD0346DAB2874B1A55BB8C0133BB84BB8CB3F5006FB2D300F020BFBB691B78412B60D18149002007F0ADFDB8613B1D1A467E49B86907F072FDBB88DAB24B
:40044000764B1A700023BB8448E0BB8C724AD35C184607F0E7FA0446704B1B78184607F0E1FA03461946204607F034FB0346184606F04CFF66A3D3E9002307F0C5F8034676
:400480000C4625461C46664B1B78184607F0CAFA0346184606F03AFF02460B462046294606F0D6FD03460C461846214607F0B4F90346FB615B49F86907F0C8FC0346002BD6
:4004C00001D0584BFB61BC8CF86907F0C9FC0346DAB2554B1A55BB8C0133BB84BB8CB3F5006FB2D300F0BBBEBB691B784F2B60D14E49002007F048FDB8613B1D1A464C4922
:40050000B86907F00DFDBB88DAB2454B1A700023BB8448E0BB8C404AD35C184607F082FA04463E4B1B78184607F07CFA03461946204607F0CFFA0346184606F0E7FE34A3FD
:40054000D3E9002307F060F803460C4625461C46334B1B78184607F065FA0346184606F0D5FE02460B462046294606F071FD03460C461846214607F04FF90346FB61294928
:40058000F86907F063FC0346002B01D0254BFB61BC8CF86907F064FC0346DAB2224B1A55BB8C0133BB84BB8CB3F5006FB2D300F056BEBB691B78572B10D105F041F8034690
:4005C00023F00103DBB2184605F02AF805F038F80346184605F024F800F041BEBB691B784E2B27D105F02CF8034623F00103DBB2184605F015F805F023F8034643F00103F8
:40060000DBB2184605F00CF800F029BEAFF300800000000000E06F4014A2FF1F9481FF1F9581FF1F00007F4364BAFF1F388B0000508B0000BB691B78462B7BD1B0490020EA
:4006400007F0A2FCB8613B1D1A46AE49B86907F067FCBB881B063B62A949002007F094FCB8613B1D1A46A749B86907F059FCBB881B043A6A13443B62A149002007F084FC5F
:40068000B8613B1D1A469F49B86907F049FCBB881B023A6A13443B629949002007F074FCB8613B1D1A469749B86907F039FCBB881A463B6A13443B62386A07F0B3F90346FB
:4006C000184606F023FE8AA3D3E9002306F072FE03460C461846214607F09EF80346FB60F968894807F0AAFA0346184607F0B8FB03463B623B6A4FF6FE72934203D94FF62E
:40070000FF733B6204E03B6A0F2B01D80F233B623B6A9BB2013B9BB20121184605F06CFE3B6A9BB2013B9BB20121184606F00EFB00F095BDBB691B784C2B23D170490020AE
:4007400007F022FCB8613B1D1A466E49B86907F0E7FBBB881B027B816949002007F014FCB8613B1D1A466749B86907F0D9FBBA887B8913447B817B891946644805F076FD30
:4007800000F06DBDBB691B786C2B23D15C49002007F0FAFBB8613B1D1A465A49B86907F0BFFBBB881B027B815549002007F0ECFBB8613B1D1A465349B86907F0B1FBBA887B
:4007C0007B8913447B817B891946514805F0F6FA00F045BDBB691B78732B31D14849002007F0D2FBB8613B1D1A464649B86907F097FBBB881B023B614149002007F0C4FB9D
:40080000B8613B1D1A463F49B86907F089FBBB881A463B6913443B613949002007F0B4FBB8613B1D1A463749B86907F079FBBB88D9B2384A3B6913440A461A7000F00FBD83
:40084000BB691B78702B6DD10023BB8448E0BB8C304AD35C184607F0E5F804462E4B1B78184607F0DFF803461946204607F032F90346184606F04AFD1FA3D3E9002306F00F
:40088000C3FE03460C4625461C46244B1B78184607F0C8F80346184606F038FD02460B462046294606F0D4FB03460C461846214606F0B2FF0346FB611949F86907F0C6FACD
:4008C0000346002B01D0164BFB61BC8CF86907F0C7FA0346DAB20E4B1A55BB8C0133BB84BB8CB3F5006FB2D300F0B9BCAFF30080524CFEFF83D7B73F0000000000E06F405A
:40090000388B0000508B00000054894664BAFF1F64AAFF1F64B2FF1F9681FF1F9781FF1F00007F43BB691B78612B60D1B049002007F02AFBB8613B1D1A46AE49B86907F0A4
:40094000EFFABB88DAB2AC4B1A700023BB8448E0BB8CAA4AD35C184607F064F80446A64B1B78184607F05EF803461946204607F0B1F80346184606F0C9FC99A3D3E90023F5
:4009800006F042FE03460C4625461C469C4B1B78184607F047F80346184606F0B7FC02460B462046294606F053FB03460C461846214606F031FF0346FB619249F86907F02B
:4009C00045FA0346002B01D08E4BFB61BC8CF86907F046FA0346DAB28B4B1A55BB8C0133BB84BB8CB3F5006FB2D300F038BCBB691B786F2B5FD17E49002007F0C5FAB8618C
:400A00003B1D1A467B49B86907F08AFABB88DAB27B4B1A700023BB8448E0BB8C774AD35C184606F0FFFF0446734B1B78184606F0F9FF03461946204607F04CF80346184695
:400A400006F064FC66A3D3E9002306F0DDFD03460C4625461C466A4B1B78184606F0E2FF0346184606F052FC02460B462046294606F0EEFA03460C461846214606F0CCFE2C
:400A80000346FB615F49F86907F0E0F90346002B01D05C4BFB61BC8CF86907F0E1F90346DAB2594B1A55BB8C0133BB84BB8CB3F5006FB2D3D3E3BB691B78772B0FD104F08E
:400AC000BFFD034623F00403DBB2184604F0A8FD04F0B6FD0346184604F0A2FDBFE3BB691B786E2B12D104F0ABFD034623F00403DBB2184604F094FD04F0A2FD034643F01F
:400B00000403DBB2184604F08BFDA8E3BB691B78662B40F08B803649002007F035FAB8613B1D1A463349B86907F0FAF9BB881B063B622F49002007F027FAB8613B1D1A469A
:400B40002C49B86907F0ECF9BB881B043A6A13443B622749002007F017FAB8613B1D1A462449B86907F0DCF9BB881B023A6A13443B621F49002007F007FAB8613B1D1A46FD
:400B80001C49B86907F0CCF9BB881A463B6A13443B62386A06F046FF0346184606F0B6FB11A3D3E9002306F005FC03460C461846214606F031FE0346FB60F968134807F026
:400BC0003DF80346184607F04BF903463B623B6A4FF6FE7293421BD94FF6FF733B621CE00000000000E06F40524CFEFF83D7B73F388B0000508B00009681FF1F64B2FF1F04
:400C00009781FF1F00007F4364AAFF1F005489463B6A0F2B01D80F233B623B6A9BB2013B9BB20121184605F0E7FB18E3BB691B78582B40F01483B949002007F0A5F9B86148
:400C40003B1D1A46B649B86907F06AF9BB88DBB2184605F0FBF902E3BB691B78532B40F0FB82AE49002007F08FF9B861BB691B784F2B0FD14F2000F089FD802000F086FDAC
:400C8000802000F083FD802000F080FD802000F07DFDE4E2BB691B78542B10D19F49002007F072F9B8613B1D1A469D49B86907F037F9BB88DBB2184604F0DAF9CFE2BB69FD
:400CC0001B78432B33D19549002007F05DF9B8613B1D1A469249B86907F022F9BB881B02FB848E49002007F04FF9B8613B1D1A468B49B86907F014F9BA88FB8C1344FB8447
:400D0000FB8C40F2FE32934203D940F2FF33FB8404E0FB8C022B01D80223FB84FB8C184604F0DEFAFB8C184604F0BCFA97E2BB691B78522B40F0F8807849002007F024F997
:400D4000B8613B1D1A467649B86907F0E9F8BB8803F04003002B2AD1BB8803F02003002B12D104F025FB034623F00F03DBB2184604F00EFB04F01CFB034643F00203DBB261
:400D8000184604F005FB24E004F012FB034623F00F03DBB2184604F0FBFA04F009FB034643F00103DBB2184604F0F2FA11E004F0FFFA034623F00F03DBB2184604F0E8FA4A
:400DC00004F0F6FA034643F00803DBB2184604F0DFFABB8803F01003002B06D1514B00221A70002004F072F905E04E4B01221A70012004F06BF9BB8803F00F03002B04DCC7
:400E00000121002003F0E6FF29E2BB8803F00F03012B04D10121012003F0DCFF1FE2BB8803F00F03022B04D10121032003F0D2FF15E2BB8803F00F03032B04D10121072054
:400E400003F0C8FF0BE2BB8803F00F03042B04D101210F2003F0BEFF01E2BB8803F00F03052B04D101211F2003F0B4FFF7E1BB8803F00F03062B04D101213F2003F0AAFF04
:400E8000EDE1BB8803F00F03072B04D101217F2003F0A0FFE3E1BB8803F00F03082B04D10121FF2003F096FFD9E1BB8803F00F03092B05D1012140F2FF1003F08BFFCEE14A
:400EC000BB8803F00F030A2B05D1012140F2FF3003F080FFC3E1BB8803F00F030B2B05D1012140F2FF7003F075FFB8E1BB8803F00F030C2B05D1012140F6FF7003F06AFF77
:400F0000ADE1BB8803F00F030C2B40F3A881012141F6FF7003F05EFFA1E100BF388B0000508B0000D091FF1FBB691B78442B59D1B549002007F028F8B8613B1D1A46B34980
:400F4000B86906F0EDFFBB88002B09D104F030FA034603F07F03DBB2184604F019FA7EE1BB88012B09D104F023FA034663F07F03DBB2184604F00CFA71E1BB88022B09D100
:400F800004F016FA034623F04003DBB2184604F0FFF964E1BB88032B09D104F009FA034643F04003DBB2184604F0F2F957E1BB88042B09D104F0FCF9034623F01003DBB23E
:400FC000184604F0E5F94AE1BB88052B40F0478104F0EEF9034643F01003DBB2184604F0D7F93CE1BB691B78472B12D104F0E0F9034643F04003DBB2184604F0C9F904F0C8
:40100000D7F9034623F04003DBB2184604F0C0F925E1BB691B78422B40F08480442000F0B5FB0023BB8478E0BB8C794A32F81330184606F059F972A3D3E9002306F0E4FAA8
:4010400003460C461846214606F0C6FB03469BB2BB80BB8C6F4A32F81330184606F044F967A3D3E9002306F0CFFA03460C461846214606F0B1FB0346FB84BB8C9B0003F043
:401080003C03BA88120A92B2D1B2634AD154BB8C9B005A1C614B1340002B03DA013B63F03F0301331A46BB88D9B25B4B9954BB8C9B009A1C594B1340002B03DA013B63F0AF
:4010C0003F0301331A46FB8C1B0A9BB2D9B2524B9954BB8C9B00DA1C504B1340002B03DA013B63F03F0301331A46FB8CD9B24A4B9954BB8C01339B0003F03C03002B09D1F8
:4011000000BF02F0E9F90346002BFAD04021424802F0D0F8BB8C0133BB84BB8CB3F5806F82D39CE0BB691B78502B58D13649002006F02AFFB861BB691B78412B10D132491F
:40114000002006F021FFB8613B1D1A462F49B86906F0E6FEBB88DBB2184604F0ADFC7EE0BB691B78422B10D12749002006F00CFFB8613B1D1A462549B86906F0D1FEBB88CE
:40118000DBB2184604F066FD69E0BB691B78432B10D11D49002006F0F7FEB8613B1D1A461A49B86906F0BCFEBB88DBB2184605F08DFA54E0BB691B78442B50D11249002088
:4011C00006F0E2FEB8613B1D1A461049B86906F0A7FEBB88DBB2184605F078FA3FE0BB691B784D2B34D10849002006F0CDFEB861BB691B78412B13D1002004F06FFF2EE069
:4012000014AE47E17A14F03F388B0000508B0000C481FF1FD089FF1F18AAFF1F3F000080BB691B78422B03D1002005F0CBF916E0BB691B78432B03D1012004F04FFF0EE0DF
:40124000BB691B78442B0AD1012005F0BBF906E0254800F089FA02E0244800F085FA244B00221A7004F0B0F803467B727B7A03F00403002B18D01F4B1B78184600F084F969
:401280000346FB80412000F081FAFB881B0A9BB2DBB203F00303DBB2184600F077FAFB88DBB2184600F072FA04F0E6F903461A46114B1B789A423EF4EEAE104B1B78002BDF
:4012C0003EF4E9AE492000F061FA04F0D5F90346184600F05BFA04F0CFF903461A46064B1A70FEF7D8BE00BF548B0000788B0000D291FF1F14AAFF1F64C2FF1FC889FF1F47
:4013000080B500AF62B64A4B00221A80494B00221A700121002001F0E9FB00BF01F08AFD0346002BFAD001F071FF002003F0CEFE01F0D4FA01F0CAF904F090FB04F05CFC16
:4013400005F096F905F062FA03F03EFE04F096F805F0F4FD04F002FF04F024FE03F036FF40F2FF3003F0BCFF40F2FF3003F09AFF002004F0A1FB002004F06CFC002005F091
:40138000A5F9002005F070FA2B4B00221A7004F00FF8034623F00F03DBB2184603F0F8FF04F006F8034643F00203DBB2184603F0EFFF04F045F9034623F00103DBB21846F4
:4013C00004F02EF904F03CF90346184604F028F904F03AFF04F0DEFF04F0DEFC04F082FD4FF40061154804F041FF154B00221A704FF40061134804F0E1FC134B00221A7093
:4014000004F0B2F80121114804F064FF01210F4804F008FD0E4B00221A70002004F01CF90C4B00221A7004F0FFF900BF80BD00BFC281FF1FD291FF1FD091FF1F64BAFF1F55
:401440009481FF1F64AAFF1F9681FF1FD191FF1F64C2FF1FC889FF1F80B500AF41F6FF734FF480420121022003F04CFE03461A463F4B1A7000F088FF03461A463D4B1A70A3
:401480003C4B18783B4B1A7806234FF4006100F0A9FF384B1B78384A92B245F6A031184600F0E0FF324B1A78324B1B781946104600F0D0FE2E4B1B780121184601F000F87C
:4014C0002B4B1B780421184600F0E2FE284B1B780121184600F00AFE254B1B780121184600F004FE41F6FF734FF480420121022003F03AFE03461A46204B1A7000F044FFAF
:4015000003461A461E4B1A701D4B18781C4B1A7802234FF4006100F065FF194B1B78194A92B245F6A231184600F09CFF134B1A78134B1B781946104600F08CFE0F4B1B786F
:401540000121184600F0BCFF0C4B1B780421184600F09EFE094B1B780121184600F0C6FD064B1B780121184600F0C0FD00BF80BD14AAFF1FCC89FF1FC481FF1FC081FF1F0F
:4015800060AAFF1FD089FF1F80B485B000AF0346FB71FB79DB0003F1804303F5F043DB79DBB29BB21B029AB2FB79DB0003F1804303F5F0439B79DBB29BB21343FB81FA8983
:4015C000084B99B26FF001035B1A13445B089BB2C3F30903FB81FB8918461437BD4680BC704700BFC481FF1F80B582B000AF01F0ABFF01F05FFF0346002B5AD001F030FF2D
:401600000346BB80BB88002B07D04F4801F076FF0346DAB24D4B1A7002E04B4801F06EFF0023FB804A4B1B881946FB88464AD25C484B5A54FB880133FB80454B1B880133CA
:401640009AB2434B1A80424B1B88C3F30B039AB23F4B1A803E4B1A883F4B1B889A4205D03A4B1B789BB2FA889A42DBD13A4B1B88FB80FB88374AD35C0A2B04D0FB88354A39
:40168000D35C0D2B09D1354B1B8801339AB2334B1A80FB882F4A0021D154FB880133FB80FB88C3F30B03FB80294B1B88FA889A42DFD10023FB80294B1B88002B40D0284B70
:4016C0001B78002B3CD117E0FB88234A12881146204A515C234AD154FB880133FB801E4B1B8801339AB21C4B1A801B4B1B88C3F30B039AB2184B1A80174B1B881A46154B04
:401700009B5C002BE0D1FB88164A0021D154124B1B8801339AB2104B1A800F4B1B88C3F30B039AB20C4B1A800C4B1B88013B9AB20A4B1A80FB88002B02D0094B01221A7048
:4017400000BF0837BD4680BDD491FF1F59AAFF1FC689FF1F1492FF1F5AAAFF1FC281FF1FD291FF1F68C2FF1F80B582B000AF786000BF01F0B1FE0346002BFAD0786801F0AE
:40178000E5FD00BF0837BD4680BD00BF80B582B000AF0346FB7100BF01F09EFE0346002BFAD0FB79184601F03FFE00BF0837BD4680BD00BF80B582B000AF786039603A68CF
:4017C0000021786806F0A3FB00BF0837BD4680BD80B584B000AFF860B9607A607A68B968F86806F089FB00BF1037BD4680BD00BF80B483B000AF0346FB71FEE780B487B0B6
:4018000000AF7860396000233B6100237B6127E07B699B007A6813441B68BB60BB68FB73BB6823F0FF03BB6014E03B695B003A6813441B781A46BB68134419463B695B00D2
:401840003A6813445B780B703B6901333B61FB7B013BFB73FB7B002BE7D17B6901337B617B69232BD4D900BF1C37BD4680BC704780B582B000AF3F4B01221A803E4B182239
:401880001A703E4B01221A803D4B18221A703D4B01221A803C4B18221A703C4B23221A803B4B18221A703B4B8F221A803A4B18221A703A4B8F221A80394B18221A70394B16
:4018C00006221A70384B52221A70384B384A1278D2B21A70374B40F20C721A80364B41F251221A800023FB7019237B6014E0FB785B00DAB2314B1B78DBB203F00103DBB278
:401900001343DBB203F00303FB704FF4F07005F047FB7B68013B7B607B68002B02D0FB78032BE4D17B68002B02D10320FFF760FF234B4FF480721A80214B07221A70214B35
:4019400000221A70204B48221A701D4B00221A701E4B00221A701E4B02221A701D4A1D4B1B78DBB243F03F03DBB2137000BF0837BD4680BD80400040824000408440004064
:4019800086400040884000408A4000408C4000408E400040904000409240004094400040964000400043004000420040A14600400F01004922420040204200402542004037
:4019C0000440004006400040084000400940004001400040A243004080B582B000AF3D4B1B78FB713C4B1B78BB713C4B1B787B713B4AFB7903F00703DBB21370394AFB7940
:401A00001B09DBB21370344ABB7943F00303DBB21370324A7B7943F00303DBB21370324BE0221A70314B01221A70314B40221A70304B40221A70304B40221A702F4B40227A
:401A40001A702F4B04221A702E4B01221A702E4B80221A702D4B08221A702D4B40221A702C4B02221A702C4B02221A702B4B08221A702B4B20221A702A4B04221A702A4B07
:401A800020221A70294B04221A70294B80221A70284B20221A70284B20221A70274B284A1A60284B284A1A60284B4C221A70284B0A221A700A2000F047FD084A7B791370A0
:401AC000054ABB791370234B44221A7000BF0837BD4680BDCF010049F8460040F94600406E5800406F5800401D5100403C5100400159004003590040095900400B5900402A
:401B0000005A0040135A0040185A0040205A0040285A0040305A0040825A00408A5A0040905A00409A5A0040C85A0040CE5A0040205B0040235B00402B5B0040405B0040E4
:401B400008010901445B004002010601585B00405A5B00407658004080B483B000AF0346FB71FB79012B0ED8FB79094A52F82330FA79074951F822201178FA790548825C49
:401B80000A43D2B21A7000BF0C37BD4680BC7047948B00009C8B000080B483B000AF0346FB71FB79012B10D8FB790A4A52F82330FA79084951F822201178FA790648825C5D
:401BC000D243D2B20A40D2B21A7000BF0C37BD4680BC7047948B00009C8B000080B483B000AF0346FB71FB79012B24D8FA79FB791344FB71FB79124A52F82330FA7910496C
:401C000051F822201178FA790E48825C0A43D2B21A70FB790133FB71FB79094A52F82330FA79074951F822201178FA790548825C0A43D2B21A7000BF0C37BD4680BC70474E
:401C4000A08B0000B08B000080B483B000AF0346FB71FB79012B28D8FA79FB791344FB71FB79144A52F82330FA79124951F822201178FA791048825CD243D2B20A40D2B288
:401C80001A70FB790133FB71FB790A4A52F82330FA79084951F822201178FA790648825CD243D2B20A40D2B21A7000BF0C37BD4680BC7047A08B0000B08B000080B483B0F4
:401CC00000AF0346FB71FB79022B0ED8FB79094A52F82330FA79074951F822201178FA790548825C0A43D2B21A7000BF0C37BD4680BC7047B48B0000C08B000080B483B0DC
:401D000000AF0346FB71FB79022B10D8FB790A4A52F82330FA79084951F822201178FA790648825CD243D2B20A40D2B21A7000BF0C37BD4680BC7047B48B0000C08B000067
:401D400080B582B000AF72B64E4A4E4B1B78DBB243F00403DBB213700023FB7113E0FA7913465B0013445B00474A13443B603B681A683B689B889BB219461046FFF71AFDB2
:401D8000FB790133FB71FB79052BE8D93F494FF09040FFF733FD3E4B40F203121A8004213C48FFF707FD04213B48FFF703FD04223A493B48FFF70CFD04213A48FFF7FAFC84
:401DC000042239493948FFF703FD04213848FFF7F1FC384A374B1B78DBB243F00203DBB21370354A344B1B78DBB243F00203DBB21370324A314B1B78DBB243F04003DBB24F
:401E000013702F4A2E4B1B78DBB243F01003DBB2137008222B492C48FFF7DAFC08222B492B48FFF7D5FC0A222A492B48FFF7D0FC08222A492A48FFF7CBFC0A2229492A4851
:401E4000FFF7C6FC082229492948FFF7C1FC294A284B1B78DBB243F00803DBB21370264B61221A70FFF704FD234BC1221A70FFF7B3FD0E2211492148FFF7AAFC00BF083713
:401E8000BD4680BDE8460040C48B0000900000484A58004000760040087600408807004810760040187600408C07004820760040287600400350014013500140A0430040A2
:401EC000C2430040500700480251004058070048C251004060070048F05100406C07004812510040740700482051004080070048325100402243004000480040B04300407D
:401F000080B500AF05F0CCFF03461B680C2B00D1FEE7FEE780B584B000AF78600F4B1A687B6813441A460E4BD31A802B09DC0B4B1B68FB60094B1A687B681344074A13601B
:401F400007E005F0ADFF02460C2313604FF0FF33FB60FB6818461037BD4680BDCC80FF1FA0C3FF1F80B586B000AF224B7B61224B3B61204B7B6135E03B691B68FB603B6902
:401F80005B68BB603B699B683B6000237B600CE0FB681A68BB681A60BB680433BB60FB680433FB607B6804337B607A683B689A42EED13B69DB683B6000237B6008E0BB688B
:401FC00000221A60BB680433BB607B6804337B607A683B689A42F2D13B6910333B617B69013B7B617B69002BC6D105F05FFFFEF74BF8FEE7010000001492000080B582B014
:4020000000AF194B194A1A60194A194B1B6843F40073136000237B600FE07B68032B04D8144A7B6852F8233000E0134B13497A6841F822307B6801337B607B682F2BECD996
:402040000F4B1B78DAB20F4B1A700F4B0B4A1A60FFF776FE00F01CF80C4B00221A6000BF0837BD4680BD00BF0CED00E00004FA0514ED00E000000000011F00000080FF1F01
:40208000BC760040C480FF1F08ED00E0C080FF1F80B483B000AF134B7F221A70124B80221A707F23FB710CE0FB79DB0003F1804303F5F043FA79013AD2B21A70FB79013B5A
:4020C000FB71FB79002BEFD1FB79DB0003F1804303F5F04300221A7000BF0C37BD4680BC704700BFD180FF1FD080FF1F80B485B000AF03460A46FB711346BB710123FB6083
:40210000FB79172B2FD8BB79002B0ED0FB791A01184B1344FA791101164A0A441278D2B242F02002D2B21A700DE0FB791A01114B1344FA7911010F4A0A441278D2B222F03E
:402140002002D2B21A70FB791A010A4B1344FA791101084A0A441278D2B242F00102D2B21A700023FB60FB6818461437BD4680BC704700BF1070004080B485B000AF03461E
:402180000A46FB711346BB710123FB60FB79172B1BD8FB791A01104B13441B78DBB223F00E03FB72FB791A010B4B1344BA795200D2B252B202F00E0251B297F90B200A436E
:4021C00052B2D2B21A700023FB60FB6818461437BD4680BC704700BF1070004080B485B000AF0346FB710B46BB8013467B800123FB60BB8841F6FF72934202D14FF4005379
:40220000BB807B8841F6FF72934202D14FF400537B80FB79172B17D8FB79DB0003F1804303F5EC430433BB60BB68BA881A80FB79DB0003F1804303F5EC430633BB60BB68B8
:402240007A881A800023FB60FB6818461437BD4680BC704780B485B000AF03460A46FB711346BB710123FB60FB79172B07D8FB791A01064B1344BA795A720023FB60FB6875
:4022800018461437BD4680BC704700BF1070004080B485B000AF03460A46FB711346BB710123FB60FB79172B15D8FB791A010D4B1344FA7911010B4A0A441279D2B251B2C4
:4022C00097F9062002F0070252B20A4352B2D2B21A710023FB60FB6818461437BD4680BC704700BF1070004090B484B000AF0446084611461A462346FB710346BB710B46B9
:402300007B7113463B710123FB60FB79172B34D8FB79DB0003F1804303F5EC43BA7902F07F02D1B27A79D201D2B20A43D2B21A70FB79DB0003F1804303F5EC433A7E120178
:40234000D1B23A7902F00F02D2B20A43D2B25A70FB79DB0003F1804303F5EC433A7F02F00F02D2B29A70FB79DB0003F1804303F5EC430022DA700023FB60FB68184610376F
:40238000BD4690BC704700BF80B582B000AFFF23FB7104F00DFE0346BB71104B1B78182B12D90F4B1B78FB710C4B1B78013BDAB20A4B1A70FB79DB0003F1804303F5F04309
:4023C0001B78DAB2064B1A70BB79184604F0F4FDFB7918460837BD4680BD00BFD080FF1FD180FF1F90B484B000AF0446084611461A462346FB710346BB800B46BB711346DA
:40240000FB700123FB6097F90730002B23DBBB8823F47F6323F00F039BB2002B1BD1FB79DB0003F1804303F5F043BB60BB68BA881A80FB79DB0003F1804303F5F043BA794E
:402440009A70FB79DB0003F1804303F5F043FA78DA700023FB60FB6818461037BD4690BC704700BF80B485B000AF0346FB710B46BB8013467B800123FB6097F90730002BFC
:4024800017DBFB79DB0003F1804303F5F0430433BB60BB68BA881A80FB79DB0003F1804303F5F0430633BB60BB687A881A800023FB60FB6818461437BD4680BC704700BF25
:4024C00080B485B000AF03460A46FB711346BB710123FB60FB79172B21D8BB79002B0ED0FB791A01114B1344FA7911010F4A0A441278D2B242F01002D2B21A700DE0FB79A0
:402500001A010A4B1344FA791101084A0A441278D2B222F01002D2B21A700023FB60FB6818461437BD4680BC704700BF1070004080B483B000AF0346FB7101BE00BF0C37E4
:40254000BD4680BC704700BF80B582B000AF0346FB80FB88054A127802FB03F3184604F01FFD00BF0837BD4680BD00BFE080FF1F80B584B000AF03463960FB710F4B1B6851
:40258000FB60FB791F2B02D90020FFF7D1FFFB7903F01F0310339B00FA6813441B68BB60FB7903F01F0310339B00FA6813443A681A60BB6818461037BD4680BD08ED00E06A
:4025C00080B582B000AF03460A46FB711346BB71BB79072B02D90020FFF7AAFFFB791F2B02D90020FFF7A4FFFB7903F01F0303F1604303F56443BA795201D2B21A7000BFD7
:402600000837BD4680BD00BF80B483B000AF7860264B1B78DBB21A467B681A60244B1B78DBB21B027A6812681A437B681A60214B1B78DBB21B047A6812681A437B681A609D
:402640001D4B1B78DBB21B067A6812681A437B681A607B680433194A1278D2B21A60184B1B78DBB21A027B6804337968043109680A431A60134B1B78DBB21A047B680433D9
:402680007968043109680A431A600F4B1B78DBB21A067B6804337968043109680A431A6000BF0C37BD4680BC704700BF0301004904010049EC46004002010049010100496F
:4026C00000010049050100490601004980B500AF064B1B78002B04D100F00AF8034B01221A7000F025F800BF80BD00BF9881FF1F80B500AF07210120FFF762FF0949012046
:40270000FFF736FF084A084B1B78DBB243F00603DBB213700C2000F071F8044B00221A8000BF80BDD128000009590040B0C2FF1F80B582B000AF04F03BFC0346FB71264A40
:40274000254B1B78DBB243F00203DBB21370234A224B1B78DBB243F00203DBB21370204B1B78BB71BB7943F00203BB71BB7943F00103BB711A4ABB7913701A4B04221A70B6
:40278000194A194B1B78DBB223F04003DBB21370154A154B1B78DBB243F00303DBB21370124B0E221A70124B02221A70114A114B1B78DBB243F00803DBB213700A20FFF73D
:4027C000C3FE0D4B02221A60FB79184604F0F4FB00BF0837BD4680BDAB430040BB4300400B5900400E5900400D59004008590040164600402F5B004080E200E080B584B020
:4028000000AF0346FB71FB790A2B07D00C2B02D0082B06D008E0C423FB730BE08423FB7308E04423FB7305E0C423FB730020FFF77FFE00BF054AFB7B1370FB79184600F012
:4028400007F800BF1037BD4680BD00BF0A59004080B584B000AF0346FB71FB790A2B08D00C2B02D0082B08D00BE04FF48053FB600DE04FF48063FB6009E04FF48073FB600B
:4028800005E00023FB600020FFF752FE00BF0C4B00221A80FB6842F2107202FB03F303F6C413084A82FB0312D212DB17D31A064A1360064B00221A8000BF1037BD4680BDE4
:4028C000AAC2FF1FAD8BDB68ACC2FF1FA8C2FF1F80B400AF00BFBD4680BC704780B500AF064B1B78002B04D100F00AF8034B01221A7000F025F800BF80BD00BF9981FF1F72
:4029000080B500AF07210020FFF75AFE09490020FFF72EFE084A084B1B78DBB243F00603DBB213700C2000F071F8044B00221A8000BF80BDE12A000001590040B4C2FF1FB3
:4029400080B582B000AF04F033FB0346FB71264A254B1B78DBB243F00103DBB21370234A224B1B78DBB243F00103DBB21370204B1B78BB71BB7943F00203BB71BB7943F0B9
:402980000103BB711A4ABB7913701A4B04221A70194A194B1B78DBB223F04003DBB21370154A154B1B78DBB243F00303DBB21370124B0E221A70124B02221A70114A114B69
:4029C0001B78DBB243F00803DBB213700A20FFF7BBFD0D4B01221A60FB79184604F0ECFA00BF0837BD4680BDAB430040BB43004003590040065900400559004000590040D4
:402A000014460040275B004080E200E080B584B000AF0346FB71FB790A2B07D00C2B02D0082B06D008E0C423FB730BE08423FB7308E04423FB7305E0C423FB730020FFF74F
:402A400077FD00BF054AFB7B1370FB79184600F007F800BF1037BD4680BD00BF0259004080B584B000AF0346FB71FB790A2B08D00C2B02D0082B08D00BE04FF48053FB60BC
:402A80000DE04FF48063FB6009E04FF48073FB6005E00023FB600020FFF74AFD00BF0C4B00221A80FB6842F2107202FB03F303F6C413084A82FB0312D212DB17D31A064AC9
:402AC0001360064B00221A8000BF1037BD4680BDB8C2FF1FAD8BDB68BCC2FF1FB6C2FF1F80B400AF00BFBD4680BC704780B582B000AF03460A46FB711346BB71094B1B78AC
:402B0000002B04D100F010F8064B01221A70BA79FB791146184600F0D9F800BF0837BD4680BD00BF9A81FF1F80B582B000AF04F03FFA0346FB71544A534B1B78DBB243F0C5
:402B40000103DBB21370514A504B1B78DBB243F00103DBB213704E4B01221A704D4B02221A704D4A4C4B1B78DBB203F07F03DBB213700020FFF7E8FC484A484B1B78DBB206
:402B800023F00603DBB21370454A454B1B78DBB223F02003DBB21370404A404B1B78DBB243F00103DBB213700120FFF7CDFC2820FFF7CAFC3B4A3B4B1B78DBB203F07F0364
:402BC000DBB21370374A374B1B78DBB223F04003DBB21370314A314B1B78DBB243F00203DBB213700220FFF7AFFC2C4A2B4B1B78DBB243F00403DBB213702B4B00221A70A2
:402C00002A4B00221A70FB79184604F0D5F907211720FFF7D5FC26491720FFF7A9FC07211820FFF7CDFC23491820FFF7A1FC07211520FFF7C5FC20491520FFF799FC0721BD
:402C40000220FFF7BDFC1D490220FFF791FC07210320FFF7B5FC1A490320FFF789FC07210420FFF7ADFC17490420FFF781FC07210C20FFF7A5FC14490C20FFF779FC00BF05
:402C80000837BD4680BD00BFA5430040B54300409D60004009600040106000409443004012600040F85100408460004085600040453D00002D360000393D0000513C00005D
:402CC000993C0000E53C0000513D000080B582B000AF03460A46FB711346BB712E4AFB7913702E4B00221A702D4B00221A702D4B00221A702C4B00221A702C4B00221A708E
:402D00002B4B00221A702B4B00221A702A4B4FF400021A60284B4FF080721A60264B4FF400121A60244B04221A60234B08221A60214B10221A60BB79002B02D0012B09D04E
:402D400011E01E4A1D4B1B78DBB223F00103DBB2137011E0194A194B1B78DBB243F00103DBB2137008E0154A144B1B78DBB243F00103DBB2137000BF114B03221A70114BF9
:402D800080221A70012004F00BF90F4B04221A7000BF0837BD4680BDD9C2FF1FDCC2FF1FF8C2FF1FFBC2FF1FF0C2FF1FFAC2FF1FFDC2FF1FD8C2FF1F00E100E009600040B5
:402DC00028600040086000401260004080B400AF0F4B00221A700F4B00221A700E4B00221A700E4B00221A700D4B00221A700D4B00221A700C4B00221A700C4B03221A70A7
:402E00000B4B80221A7000BFBD4680BC704700BFDCC2FF1FF8C2FF1FFBC2FF1FF0C2FF1FFAC2FF1FFDC2FF1FD8C2FF1F286000400860004080B400AF034B1B78DBB21846CF
:402E4000BD4680BC704700BFFBC2FF1F80B483B000AF0346FB71FA79064913465B0013449B000B4401331B78DBB218460C37BD4680BC704700C3FF1F80B485B000AF034613
:402E8000FB710023FB81FB79002B1CD0FB79082B19D8104AFB791B0113441B78DBB29BB203F00F03FB81FB891B029AB20949FB791B010B4401331B78DBB29BB21343FB8124
:402EC000FB89023BFB81FB8918461437BD4680BC704700BFFC5F0040B0B485B000AF03463960FB711346BB80FB79002B6DD0FB79082B6AD8B988FA79364813465B001344EC
:402F00009B00034406331B889BB2C3F5007399420CD9FA792F4913465B0013449B000B4406331B889BB2C3F50073BB802A4CF979BB881B0A9BB2D8B2FA79264D13465B006B
:402F400013449B002B4403331B78DBB20343DAB20B0123441A70204AFB79B988C9B21B01134401330A461A703B68002B13D00023FB810CE01948FB79FA8939680A441278A3
:402F80001B01034408331A70FB890133FB81FA89BB889A42EED3FA790E4913465B0013449B000B44013300221A700B48F979FA79084C13465B0013449B00234405331B784F
:402FC000DAB20B01034402331A7000BF1437BD46B0BC704700C3FF1FFC5F00407060004080B584B000AF03463960FB711346BB803B68002B30D0FB79002B2DD0FB79082B6C
:403000002AD8FB791846FFF737FF03461A46BB88934205D9FB791846FFF72EFF034600E0BB88BB800023FB810DE0FB893A6813440D49FA7912010A4408321278D2B21A7050
:40304000FB890133FB81FA89BB889A42EDD3FB79184600F00BF801E00023BB80BB8818461037BD4680BD00BF7060004090B482B000AF0346FB71FB79002B1CD0FB79082BB3
:4030800019D8FA790E4913465B0013449B000B44013300221A700B48F979FA79084C13465B0013449B00234405331B78DAB20B01034402331A7000BF0837BD4690BC70477A
:4030C00000C3FF1FFC5F004080B582B000AF0023FB71314B1B79DBB2184600F067F80346BB712D4B1B78DBB25BB2002B15DA2A4B5B78DBB2212B00D048E0284B07221A80E2
:40310000BA791346DB009B1A254A1344234A536000F006FC0346FB7138E01F4B5B78DBB2202B02D0222B1AD030E01C4B07221A80BA791346DB009B1A194A1344174A53608C
:40314000BB79BA7917498A5CD2B242F00102D1B2144AD15400F062FC0346FB7116E0BB790D4A9278D2B291B20F4A22F81310BB79BA790C498A5CD2B242F00202D1B2094AC6
:40318000D15400F0E9FC0346FB7100BFFB7918460837BD4680BD00BF00600040E4C2FF1FE880FF1FC0C2FF1FD4C2FF1F80B485B000AF0346FB710023FB73FF23BB7317E0AE
:4031C000FB7B104AD35C7B737A7B0F4913465B0013449B000B440A331B78DBB2FA799A4203D1FB7BBB730223FB73FB7B0133FB73FB7B012BE4D9BB7B18461437BD4680BC54
:40320000704700BFC8C2FF1F00C3FF1F80B582B000AF0023BB71224B00221A70214B00221A70204B00225A700023FB7110E0FB791D4AD35C7B717B79002B06D07B79082B11
:4032400003D87B791846FFF711FFFB790133FB71FB79012BEBD9154B1B78DBB2002B18D0114B1B78DBB2002B13D0114B1B78DBB2002B0ED00D4B1B78DBB2082B09D80A4B20
:403280001B78DBB2082B04D8094B1B78DBB2082B01D90123BB71BB7918460837BD4680BD9B81FF1FC0C2FF1FCCC2FF1FC4C2FF1FC8C2FF1F80B584B000AF78600B467B80EF
:4032C000144B1B781A46144B9B5CFB73FA7B134913465B0013449B000B4408331B889BB27A889A420CD9FA7B0C4913465B0013449B000B4408331B887B800020FFF718F945
:403300007A88FB7B79681846FFF7E6FD00BF1037BD4680BD9B81FF1FC4C2FF1F00C3FF1F80B485B000AF78600023FB8102E0FB890133FB81FB897A6813441B78002BF6D111
:40334000FB8918461437BD4680BC704780B584B000AF78600023BB81304B1B781A46304B9B5CFB727868FFF7DBFF0346FB81FA7A2C4913465B0013449B000B4408331B885D
:403380009BB2FA899A420AD9FA7A264913465B0013449B000B4408331B889BB200E0FB893B81BB897A68D1183A89FB7A1846FFF793FDFA893B89D31AFB81FB89002B0CD1F4
:4033C000FA7A184913465B0013449B000B4408331B889BB23A899A4219D1BA893B891344BB8100BFFA7A0F4913465B0013449B000B4401331B78DBB2002BF3D0FB89002B44
:4034000005D1FB7A002200211846FFF765FDFB89002BACD100BF1037BD4680BD9B81FF1FC4C2FF1F00C3FF1F80B584B000AF0346FB71FB79FB73084B1B781A46074B9B5CD9
:40344000DBB207F10F0101221846FFF745FD00BF1037BD4680BD00BF9B81FF1FC4C2FF1F80B582B000AF104B1B781A460F4B9B5C7B717A790E4913465B0013449B000B443B
:4034800001331B78DBB2012B06D17B791846FFF7F3FC0346FB8001E00023FB80FB8818460837BD4680BD00BF9B81FF1FCCC2FF1F00C3FF1F80B500AF054B1B781A46054BDE
:4034C0009B5CDBB21846FFF7C1FC0346184680BD9B81FF1FCCC2FF1F80B500AF054B1B781A46054B9B5CDBB21846FFF7AFFC0346184680BD9B81FF1FC4C2FF1F80B584B048
:4035000000AF78600D4B1B781A460D4B9B5CFB73FA7B0C4913465B0013449B000B4408331B889AB2FB7B79681846FFF759FD0346BB81BB8918461037BD4680BD9B81FF1F2A
:40354000CCC2FF1F00C3FF1F80B483B000AF0023FB710F4B1B78DBB2002B13D10D4B1B781A460D4B9B5CDBB2002B0BD0094B1B781A46094B9B5CFB71064B1B781A46064BD0
:4035800000219954FB7918460C37BD4680BC7047DCC2FF1F9B81FF1FC0C2FF1F80B485B000AF78600B46FB701346BB707B68DB7803F00303FB737B689B785BB2002B1ADA6D
:4035C000FB7B032B0AD0BB7803F001031449FA78CA54BB7843F00103BB701BE0BB789B08DBB203F001030F49FA78CA54BB7843F00403BB700EE0FB7B032B0BD0BB785B08C9
:40360000DBB203F001030849FA78CA54BB7843F00203BB70BB7818461437BD4680BC7047C4C2FF1FC8C2FF1FCCC2FF1F80B582B000AF374B1B78BB71BB7903F01003002B09
:4036400062D00123FB7197F90630002B12DABB7903F00F03012B02D00023FB711CE000F061F82C4B1B78DBB25BB2002B14DA0023FB7111E0BB7903F04003002B02D000F00C
:4036800095F809E0BB7903F02003002B02D000F0B3F801E00023FB71FB79002B34D01C4B1B78BB7197F90630002B2DDB1A4B1B78DAB21A4B1B78DBB21343BB71184ABB795F
:4036C0001370174B1B78DBB2BA799A421CD1114B1B78FB710E4B1B78DBB223F07F03BB71BB79002B0AD10A4B0A4A1278D2B21A70074B1B78DBB203F00F03FB71054B1B78F3
:40370000DBB2FA799A42E2D100BF0837BD4680BD28600040F9C2FF1F6EC3FF1FFCC2FF1F2960004080B582B000AF1D4B1B78FB711B4AFB7913701A4B1B78FB7197F9073023
:40374000002B03DA174AFB79137025E0022000F045FA154B1B78DBB203F06003202B08D0402B0BD0002B0ED100F0F8FA0346FB710CE003F025FC0346FB7107E001F000FB2B
:403780000346FB7102E00023FB7100BFFB79002B02D1044B03221A7000BF0837BD4680BD28600040F9C2FF1F0060004080B500AF104B1B78DBB2062B19D801A252F823F0B4
:4037C000EF370000EF370000DD370000EF370000E3370000EF370000E937000000F0F8F806E000F0A7F903E000F0D2F900E000BF00BF80BDDCC2FF1F80B500AF124B1B78C4
:40380000DBB2062B1DD801A252F823F0433800004338000029380000433800002F380000433800003538000000F0D8F80AE000F027F907E0032000F0D1F9044B03221A7038
:4038400000E000BF00BF80BDDCC2FF1FF9C2FF1F80B483B000AF0023FB71294B1B78DBB29AB2284B1B889BB213449AB2254B1A8015E02549FB79254A52681278D2B2CA5457
:40388000224B5B680133214A5360FB790133FB711E4B1B889BB2013B9AB21C4B1A801B4B1B889BB2002B02D0FB79072BE1D9144B1B78DBB2082B02D0FB79002B0FD0144B7C
:4038C0001B78DBB283F07F03DB43DAB2104B1A70104B0F221A70104B02221A7005E00D4B02221A700C4B02221A700C4AFB791370034AFB79137000BF0C37BD4680BC70478C
:40390000D8C2FF1FDAC2FF1F00600040E4C2FF1F6EC3FF1FF9C2FF1FDCC2FF1FFCC2FF1F80B582B000AF164B1B889BB2002B02D100F02EF81EE0134B02221A70124B0022ED
:403940001A7000F06BF9114BDB79DBB29BB21B029AB20E4B9B79DBB29BB21343FB80084B1B889BB2FA889A4202D2054AFB881380FFF76EFF012318460837BD4680BD00BF61
:40398000E4C2FF1FDCC2FF1F6EC3FF1F0060004080B400AF094B02221A70094B80221A70084B0F221A70084B00221A70074B00221A7001231846BD4680BC7047DCC2FF1FF4
:4039C0006EC3FF1FF9C2FF1FD8C2FF1FFCC2FF1F80B500AFFFF73CFF00BF80BD80B500AF0A4B1B78DBB29AB2094B1B889BB213449AB2074B1A80074B00221A70012000F073
:403A0000EDF8054B03221A7000BF80BDD8C2FF1FDAC2FF1FDCC2FF1FF9C2FF1F80B582B000AF124B04221A70114B80221A7000F0F5F8104BDB79DBB29BB21B029AB20D4BCD
:403A40009B79DBB29BB21343FB800B4B1B889BB2FA889A4202D2084AFB881380074B0B221A70012318460837BD4680BDDCC2FF1F6EC3FF1F00600040E4C2FF1FF9C2FF1F55
:403A800080B483B000AF0023BB71234B1B78DBB203F00F03DBB2023BFB71FB799AB21F4B1B889BB213449AB21C4B1A8018E01C4B5B681C49BA798A5CD2B21A70184B5B6846
:403AC0000133174A5360BB790133BB71FB79013BFB71134B1B889BB2013B9AB2104B1A800F4B1B889BB2002B02D0FB79002BDED10D4AFB7913700D4B1B78DBB283F07F03B3
:403B0000DB43DAB2094B1A70094B0B221A7000BF0C37BD4680BC704729600040DAC2FF1FE4C2FF1F00600040FCC2FF1F6EC3FF1FF9C2FF1F80B500AF054B00221A7001200E
:403B400000F04CF8034B03221A7000BF80BD00BFDCC2FF1FF9C2FF1F80B400AF084B06221A70084B06221A70074B80221A70074B00221A7001231846BD4680BC704700BF24
:403B8000DCC2FF1FF9C2FF1F6EC3FF1FFCC2FF1F80B500AF0D4B1B78DBB2002B0AD00C4A0A4B1B78DBB263F07F03DBB21370074B00221A70074B00221A70012000F00EF821
:403BC000054B03221A7000BF80BD00BFFAC2FF1F08600040DCC2FF1FF9C2FF1F80B483B000AF0346FB710B4B9B68002B0CD0094B9B68FA791A70074B9B68074A128892B2F1
:403C00005A80044B00229A6000BF0C37BD4680BC704700BFE4C2FF1FDAC2FF1F80B400AF094B00221A80094B9B68002B07D0074B9B6800221A70054B9B6800225A8000BFAF
:403C4000BD4680BC704700BFDAC2FF1FE4C2FF1F80B400AF0D4B01221A700D4B9B7C0D4B1B7BDBB203F00303012B08D0094BDB7BDBB283F07F03DB43DAB2064BDA73054B7E
:403C800001225A7300BFBD4680BC70470B600040FC5F004000C3FF1F80B400AF0E4B02221A700E4B93F822300D4B1B7EDBB203F00303012B08D00A4BDB7EDBB283F07F036D
:403CC000DB43DAB2064BDA76054B01225A7600BFBD4680BC704700BF0B600040FC5F004000C3FF1F80B400AF104B04221A70104B93F832300F4B93F82430DBB203F00303A6
:403D0000012B0AD00B4B93F82730DBB283F07F03DB43DAB2074B83F82720064B012283F8252000BFBD4680BC704700BF0B600040FC5F004000C3FF1F80B400AF00BFBD4691
:403D400080BC704780B500AFFFF740F800BF80BD80B500AF01F00CFB00BF80BD80B586B000AF0023FB759D4B1B78FB7100233B619B4B00221A8097F90730002B80F204818C
:403D8000964B5B78DBB20A2B00F21B8201A252F823F000BFDF3E0000C3410000C3410000C3410000C3410000C3410000C13D0000C3410000533F0000C3410000693F0000CE
:403DC000864BDB78DBB2012B0ED100F049FEB860BB685B68824A5360814B12221A80FFF79FFD0346FB75EEE17C4BDB78DBB2022B25D17A4B9B78DBB2184600F009FEB86003
:403E0000BB68002B00F0DF81BB685B68744A5360734B5B6803331B78DBB29BB21B029AB26F4B5B6802331B78DBB29BB213439AB26B4B1A80FFF774FD0346FB75C3E1674B79
:403E4000DB78DBB2032B45D10023FB73654B3B6109E03B691B78BB71BB793A6913443B61FB7B0133FB735D4B9B78DBB2FA7B9A4204D23B691B78DBB2002BEAD1574B9B7845
:403E8000DBB2EE2B01D1584B3B61544B9B78DBB2002B0BD0514B9B78DAB2544B1B7C9A4204D1534800F0ACF9514B3B613B691B78DBB2002B00F087813B691B78DBB29AB285
:403EC000474B1A80464A3B695360FFF729FD0346FB7578E103F074F80346FB7573E1FB7903F00303002B20D0022B00D030E03C4B02221A80394B1B79DBB203F07F023D499C
:403F000013465B0013449B000B4402331B78DAB2394B1A70384B00225A70314B364A5A60FFF7FEFC0346FB7512E02D4B02221A80324B1B78DAB2304B1A702F4B00225A702D
:403F4000274B2D4A5A60FFF7EBFC0346FB7500BF40E1234B01221A80214B294A5A60FFF7DFFC0346FB7535E11D4B01221A801B4B1B79DBB21A46234B1344194A5360FFF7E7
:403F8000CFFC0346FB7525E1144B5B78DBB2013B0A2B00F21A8101A252F823F0A7400000CB41000035410000CB410000C93F0000CB410000CB410000CB4100000D400000CC
:403FC000CB41000063400000044B9B78DAB20E4B1A70FFF7C1FD0346FB75FBE000600040E4C2FF1F1C8F000024900000C48E000074C3FF1F00C3FF1F9C81FF1FFDC2FF1F96
:40400000FBC2FF1F6CC3FF1FFAC2FF1F744B9B787B717B79002B06D07B79013BDBB2184600F0F6FCB8607B79002B02D0BB68002B03D17B79002B40F0CA806A4B1B78DBB235
:404040007A799A4208D0674A7B791370664B01221A70012000F0DCF9FFF77EFD0346FB75B5E000F055FE0346002B00F0B2805C4B1B793B715A4B1B79DAB25C4B1A703B7904
:404080005B4AD35CDAB23B795A49CB5CDBB29A4204D0554B01221A7000F08CFBFFF75CFD0346FB7595E0FB7903F00303012B20D0012B0CD3022B00D03BE0494B9B78DBB2C4
:4040C000002B31D100F078FD0346FB752CE0444B9B78DBB2012B29D1474B1B78DBB223F00203DAB2444B1A70FFF736FD0346FB751CE03B4B1B79DBB2012B19D8384B9B786D
:40410000DBB2DB43DBB2364A1279D2B2114610463A4A125CD2B21340DAB2384B5A54FFF71BFD0346FB7503E000BF53E000BF51E000BF4FE0FB7903F00303012B20D0012B56
:404140000CD3022B00D03BE0254B9B78DBB2002B31D100F0BDFC0346FB752CE0204B9B78DBB2012B29D1244B1B78DBB243F00203DAB2214B1A70FFF7EFFC0346FB751CE08D
:40418000174B1B79DBB2012B19D8154B9B78DBB2DB43DBB2124A1279D2B211461046174A125CD2B21340DAB2144B5A54FFF7D4FC0346FB7503E000BF0CE000BF0AE000BFE8
:4041C00008E000BF06E000BF04E000BF02E000BF00E000BFFB7D18461837BD4680BD00BF00600040FBC2FF1FF8C2FF1FF0C2FF1FE0C2FF1F6CC3FF1FFDC2FF1F70C3FF1F0E
:40420000B0B58AB000AF7860324B07F114041D460FCD0FC42B682370002387F826307B68002B52D07B6822221A707B68013303221A7007F10C031846FEF7E6F9022387F817
:4042400027303EE097F827307A68134497F8262007F128010A4412F81C2C1209D2B207F128010A4412F8142C1A7097F8273001337A68134400221A7097F8273002337A6836
:40428000134497F8262007F128010A4412F81C2C02F00F0207F128010A4412F8142C1A7097F8273003337A68134400221A7097F82630013387F8263097F82730043387F840
:4042C000273097F82730212BBCD900BF2837BD46B0BD00BFE88B000090B482B000AF0123FB7180E0464AFB791B0113440C221A70FA79444913465B0013449B000B4405336F
:404300001B78DBB2002B1CD0FA793E4913465B0013449B000B4404331B78DBB25BB2002B07DA394AFB791B01134402330C221A700EE0354AFB791B011344023308221A7053
:4043400006E0314AFB791B011344023380221A702B48F979FA792B4C13465B0013449B00234406331B889BB2DAB20B01034406331A702348F979FA79224C13465B00134424
:404380009B00234406331B889BB21B0A9BB2DAB20B01034407331A701948F979FA79194C13465B0013449B00234406331B889BB2DAB20B01034404331A701148F979FA79FE
:4043C000104C13465B0013449B00234406331B889BB21B0A9BB2DAB20B01034405331A70FB790133FB71FB79082B7FF67BAF074BFF221A7000BF0837BD4690BC704700BFFE
:404400007060004000C3FF1FFC5F00400A60004080B58AB000AF0346FB7100237B84002387F8273050E097F82720B34913465B0013449B000B4400221A7097F82720AE49E8
:4044400013465B0013449B000B44023300221A7097F82720A84913465B0013449B000B44033300221A7097F82720A34913465B0013449B000B44083300221A8097F8272044
:404480009D4913465B0013449B000B440A3300221A7097F82720984913465B0013449B000B44013300221A7097F82720924913465B0013449B000B44053300221A7097F893
:4044C0002730013387F8273097F82730082BAAD9FB79002B16D0002387F825300EE097F82530864A0021D15497F82530844A0021D15497F82530013387F8253097F8253093
:40450000012BECD97F4B1B78DBB2002B00F04A810023FB767B4B1B78DBB2013BDBB2184600F076FA78617B695B683B613B6907331B7803F04003002B08D0734B1B78DBB215
:4045400043F00103DAB2704B1A7007E06E4B1B78DBB223F00103DAB26B4B1A707B6908337B617B691B7887F82730012387F82530B6E07B695B68FB61002387F82630A3E03C
:4045800097F82520FB699B7803F07F039A4240F0938097F82520584913465B0013449B000B4408331B889AB2FB699B889A420CD297F82520FB6998884F4913465B0013444C
:4045C0009B000B44083302461A80FB691B781A464A4B9B5CDAB2FB695B789A426CD197F82520FB699878444913465B0013449B000B44043302461A7097F82520FB69D8789A
:404600003D4913465B0013449B000B4402461A70FB69DB7803F00303FB73FB699B785BB2002B1CDA97F82520FB7B012B01D1072000E00D20304913465B0013449B000B4480
:40464000053302461A7097F825202B4913465B0013449B000B44013301221A701BE097F82520FB7B012B01D1052000E00920224913465B0013449B000B44053302461A7037
:4046800097F825201C4913465B0013449B000B44013300221A70FB699B790A2B03D0FB699B79022B08D1FA7E97F825301946F869FEF774FF0346FB76FB690833FB6197F826
:4046C0002630013387F8263097F8262097F827309A42FFF455AF97F82530013387F8253097F82530082B7FF644AF7B695B68FB61002387F8253020E000C3FF1F6CC3FF1F3A
:40470000E0C2FF1FFBC2FF1FFDC2FF1FFB699B7803F07F02FB691878244913465B0013449B000B440A3302461A70FB690833FB6197F82530013387F8253097F8252097F867
:4047400027309A42E2D300F09DF90246184B1A6000237B84012387F827301DE097F82720124913465B0013449B000B4406337A8C1A8097F827200D4913465B0013449B00BC
:404780000B4408331B889AB27B8C13447B8497F82730013387F8273097F82730082BDDD9FFF79AFD00BF2837BD4680BD00C3FF1FF4C2FF1F90B585B000AF8F4B1B78DBB2A1
:4047C000002B00F015818C4B1B78DBB2013BDBB2184600F01DF978607B6808337B607B681B78FB707B685B68BB60844B1B78BB700023FB73F7E0BB681B78BA789A4240F088
:40480000EC80BB787E4AD35CDAB2BB685B789A4240F0E380BB689B7803F07F037B70BB68DB7803F003033B707A78764913465B0013449B000B44033300221A707A78BB68A4
:404840009878704913465B0013449B000B44043302461A707A78BB68D8786A4913465B0013449B000B4402461A707A78BB689888644913465B0013449B000B440833024638
:404880001A80BB689B785BB2002B1ADA7A783B78012B01D1072000E00D205A4913465B0013449B000B44053302461A707A78554913465B0013449B000B44013301221A701D
:4048C00019E07A783B78012B01D1052000E009204C4913465B0013449B000B44053302461A707A78474913465B0013449B000B44013300221A70444A7B781B0113440233DA
:4049000001221A70404879787A783E4C13465B0013449B00234408331B889BB21B0A9BB2DAB20B0103441A70374879787A78354C13465B0013449B00234408331B889BB2A7
:40494000DAB20B01034401331A70304879787A782C4C13465B0013449B00234406331B889BB2DAB20B01034406331A70274879787A78244C13465B0013449B0023440633E7
:404980001B889BB21B0A9BB2DAB20B01034407331A701E4879787A781A4C13465B0013449B00234406331B889BB2DAB20B01034404331A70154879787A78124C13465B001B
:4049C00013449B00234406331B889BB21B0A9BB2DAB20B01034405331A70BB680833BB60FB7B0133FB73FA7BFB789A42FFF403AF00BF1437BD4690BDFBC2FF1FF0C2FF1F23
:404A00006CC3FF1F00C3FF1FFC5F00407060004080B485B000AF0346FB710F4B1B78DBB20E4ADB0013445B68FB60FB681033FB60FB681B78FA799A4202D30023FB6005E030
:404A4000FB79DB00FA6813445B68FB60FB6818461437BD4680BC7047D9C2FF1F1C90000080B400AF054B1B78DBB2054ADB0013445B681846BD4680BC704700BFD9C2FF1F46
:404A80001C90000080B584B000AF104B1B78DBB2013BDBB21846FFF7BBFFB860BB68002B0DD0BB685B681B79FB71FB790233DB00BA681344BB60BB685B68FB6001E000235A
:404AC000FB60FB6818461037BD4680BDFBC2FF1F80B582B000AF0023FB71344B1B79DBB203F07F03BB71BB79002B5AD0BB79082B57D8BA79B9792E480B465B000B449B00C2
:404B0000034402331B78DBB243F00103D8B2284913465B0013449B000B44023302461A70BA79234913465B0013449B000B44033300221A70BA79B9791D480B465B000B4470
:404B40009B00034401331B78DBB243F00203D8B2174913465B0013449B000B44013302461A70BA79124913465B0013449B000B4404331B78DBB25BB2002B07DA0D4ABB7964
:404B80001B01134402338D221A7006E0094ABB791B011344023389221A70FEF7DDFF0346FB71FB7918460837BD4680BD0060004000C3FF1FFC5F004080B582B000AF00239E
:404BC000FB71504B1B79DBB203F07F03BB71BB79002B00F09280BB79082B00F28E80BA79B97949480B465B000B449B00034402331B78DBB223F00103D8B2434913465B001B
:404C000013449B000B44023302461A70BA793E4913465B0013449B000B44033300221A703A49BB793948BA79120102441278D2B202F07F02D2B21B010B441A70BA79B97978
:404C400031480B465B000B449B00034401331B78DBB223F00203D8B22B4913465B0013449B000B44013302461A70BA79264913465B0013449B000B4404331B78DBB25BB27E
:404C8000002B1BDABA79204913465B0013449B000B4401331B78DBB2012B07D11B4ABB791B01134402330C221A7022E0174ABB791B01134402330D221A701AE0BA79124972
:404CC00013465B0013449B000B4401331B78DBB2012B07D10D4ABB791B011344023308221A7006E0094ABB791B011344023309221A70FEF731FF0346FB71FB7918460837CB
:404D0000BD4680BD0060004000C3FF1FFC5F004080B584B000AF0023FB73154B1B79BB73144B1B78DBB2013BDBB21846FFF770FEB860BB685B681B79FB71BA7BFB799A42BF
:404D400002D9BB7B022B0ED8BB7BBA7B0A498A5CD1B20A4AD154BB7B054A9278D1B2064AD1540123FB73FB7B18461037BD4680BD00600040FBC2FF1F6CC3FF1FE0C2FF1F73
:404D800080B582B000AF0023FB710F4B1B78DBB25BB2002B12DA0C4B5B78DBB2012B00D00CE00A4B0A4A5A60094B1B789AB2074B1A80FEF7B5FD0346FB7100BFFB791846A2
:404DC0000837BD4680BD00BF00600040E4C2FF1F3890000080B584B000AF03460A46FB8013467B7100F0B4F80346FB7300F0A4F80346BB81FA88BB899A4200F08880464B49
:404E00001B78DBB203F00803FB72FB7B002B20D1BB89002B02D0FB88002B1AD1BB89002B0BD13E4AFB8813803D4A3D4B1B78DBB223F04003DBB2137069E0394A384B1B781B
:404E4000DBB243F04003DBB21370344AFB8813805DE0FB7A002B33D0324B00221A70324B08221A70314B00221A70314A304B1B78DBB203F07F03DBB21370294B1B78DBB2FA
:404E800003F00803002B02D0FB88002B18D1294ABB891380234B07221A7000BF214B1B78DBB203F00103002BF8D11B4A1A4B1B78DBB223F00803DBB213701A4B00221A7096
:404EC000154B1B78DBB203F00803002B13D0194AFB881380134A7B79002B01D0032300E00123137000BF0F4B1B78DBB203F00103002BF8D10BE0094AFB8813800649064B9B
:404F00001B78DAB2FB7A1343DBB20B70FFE700BF1037BD4680BD00BFA24300408C4000408E400040014000401040004014400040084000400240004080B400AF034B1B88D2
:404F40009BB21846BD4680BC704700BF8C40004080B400AF044B1B78DBB203F00703DBB21846BD4680BC70478E40004080B500AF064B00221A70064B00221A70042000F095
:404F800057F8002000F034F800BF80BD2C5800402D58004080B400AF094A094B1B78DBB243F00803DBB21370064A064B1B78DBB243F00803DBB2137000BFBD4680BC704725
:404FC000A8430040B843004080B500AF074B1B78002B04D1FFF7CAFF044B01221A70FFF7D9FF9C2000F044F800BF80BD9E81FF1F80B483B000AF0346FB710C4A0B4B1B78CE
:40500000DBB223F00203DBB213700849074B1B78DAB2FB7903F00203DBB21343DBB20B7000BF0C37BD4680BC704700BF2C58004080B582B000AF0346FB710C4A0B4B1B781D
:40504000DBB223F00C03DBB213700849074B1B78DAB2FB7903F00C03DBB21343DBB20B7000F016F800BF0837BD4680BD2C58004080B483B000AF0346FB71044AFB7913703E
:4050800000BF0C37BD4680BC704700BF835B004080B483B000AF0B4B1B78DBB203F00C039B08DBB20633FB71074AFB7903F1924303F59C731B78DBB2137000BF0C37BD467B
:4050C00080BC70472C5800400B46004080B582B000AF0346FB710A4B1B78FF2B04D0084B1B781846FCF70AFEFB791846FCF7E6FD034AFB79137000BF0837BD4680BD00BF8F
:405100000281FF1F90B585B002AF0446084611461A462346FB710346BB710B46BB8013467B80104B00221A700E4B1878BA79F97900230193002300930023FDF7D5F8094BF0
:405140001B787A88B9881846FDF748F8054B1B7802211846FDF710F8024B1B7818460C37BD4690BD0381FF1F90B585B002AF0446084611461A462346FB710346BB710B46DF
:40518000BB8013467B80104B01221A700E4B1878BA79F97900230193002300930023FDF7A3F8094B1B787A88B9881846FDF716F8054B1B7802211846FCF7DEFF024B1B780D
:4051C00018460C37BD4690BD0481FF1F80B500AF064B1B78002B04D100F00AF8034B01221A7000F04FF800BF80BD00BF9F81FF1F80B582B000AF204B1B78DBB223F03F0340
:40520000FB711D4AFB7943F00A03DBB213701B4A1A4B1B78DBB243F00103DBB21370184A174B1B78DBB243F00103DBB2137040F2FF3000F037F840F2FF3000F051F8012040
:4052400000F05EF8002000F06BF801F0B1FE0346BB710B4A0A4B1B78DBB243F01003DBB21370BB79184601F0A7FE00F02BF800BF0837BD4680BD00BF7965004098650040AD
:405280009965004080B400AF054A054B1B78DBB263F07F03DBB2137000BFBD4680BC70477965004080B483B000AF0346FB80044AFB88138000BF0C37BD4680BC704700BF61
:4052C000106A004080B500AF01E000F045F800F037F8034603F01003002BF6D100BF80BD80B483B000AF0346FB80044AFB88138000BF0C37BD4680BC704700BF906A004077
:4053000080B483B000AF0346FB80044AFB88138000BF0C37BD4680BC704700BF506A004080B483B000AF0346FB71044AFB79137000BF0C37BD4680BC704700BF8965004089
:4053400080B400AF034B1B78DBB21846BD4680BC704700BF6965004080B400AF034B1B889BB21846BD4680BC704700BFB06A004080B400AF054B1B78DBB203F040039B0900
:40538000DBB21846BD4680BC704700BF8F45004080B483B000AF0346FB71044AFB79137000BF0C37BD4680BC704700BF7B65004080B400AF034B1B78DBB21846BD4680BC64
:4053C000704700BF7B65004080B400AF034B1B78DBB21846BD4680BC704700BF6964004080B500AF012000F05BF8154A144B1B78DBB223F02003DBB21370114A104B1B78F1
:40540000DBB223F00403DBB213700D4A0C4B1B78DBB243F00803DBB213700A4A094B1B78DBB223F01803DBB21370064A054B1B78DBB243F01003DBB2137000BF80BD00BFC2
:4054400041580040CF5A004080B400AF094A094B1B78DBB243F00203DBB21370064A064B1B78DBB243F00203DBB2137000BFBD4680BC7047A7430040B743004080B500AFF2
:40548000064B1B78002B04D1FFF7AAFF034B01221A70FFF7D9FF00BF80BD00BFA081FF1F80B483B000AF0346FB711749164B1B78DBB25BB223F003035AB297F9073003F00E
:4054C00003035BB213435BB2DBB20B70FB79012B0AD10E4B0E4A1278D2B21A700D4B0E4A1278D2B21A7009E0084B0C4A1278D2B21A70084B0A4A1278D2B21A7000BF0C37B7
:40550000BD4680BC704700BF4158004032460040110100493346004015010049AF010049B701004980B500AF4FF4344000F068F84FF6FF7000F054F84FF6FF7000F026F81B
:4055400000F002F800BF80BD80B400AF054A054B1B78DBB243F00103DBB2137000BFBD4680BC70477665004080B500AF064B1B78002B04D1FFF7D6FF034B01221A70FFF708
:40558000E3FF00BF80BD00BFA181FF1F80B584B000AF0346FB8001F00BFD0346FB730D4A0C4B1B78DBB243F00303DBB213700A4A094B1B78DBB243F00303DBB21370FB7BE4
:4055C000184601F0F9FC054AFB88138000BF1037BD4680BD94650040956500404465004080B483B000AF0346FB80044AFB88138000BF0C37BD4680BC704700BF04650040C2
:4056000080B483B000AF0346FB80044AFB88138000BF0C37BD4680BC704700BF2465004080B483B000AF0346FB71044AFB79137000BF0C37BD4680BC704700BF78640040C9
:4056400080B400AF034B1B78DBB21846BD4680BC704700BF7864004080B483B000AF0346FB71044AFB79137000BF0C37BD4680BC704700BF7565004080B400AF034B1B7805
:40568000DBB21846BD4680BC704700BF6B65004080B584B000AF03460A46FB8013467B7100F0B4F80346FB7300F0A4F80346BB81FA88BB899A4200F08880464B1B78DBB21A
:4056C00003F00403FB72FB7B002B20D1BB89002B02D0FB88002B1AD1BB89002B0BD13E4AFB8813803D4A3D4B1B78DBB223F04003DBB2137069E0394A384B1B78DBB243F0B7
:405700004003DBB21370344AFB8813805DE0FB7A002B33D0324B00221A70324B04221A70314B00221A70314A304B1B78DBB203F07F03DBB21370294B1B78DBB203F00803F7
:40574000002B02D0FB88002B18D1294ABB891380234B07221A7000BF214B1B78DBB203F00103002BF8D11B4A1A4B1B78DBB223F00403DBB213701A4B00221A70154B1B78DC
:40578000DBB203F00403002B13D0194AFB881380134A7B79002B01D0032300E00123137000BF0F4B1B78DBB203F00103002BF8D10BE0094AFB8813800649064B1B78DAB2AA
:4057C000FB7A1343DBB20B70FFE700BF1037BD4680BD00BFA2430040884000408A400040014000401040004014400040084000400240004080B400AF034B1B889BB2184686
:40580000BD4680BC704700BF8840004080B400AF044B1B78DBB203F00703DBB21846BD4680BC70478A40004080B500AF064B1B78002B04D100F00AF8034B01221A7000F0CC
:4058400045F800BF80BD00BFA281FF1F80B582B000AF1C4B1B78DBB223F03F03FB71194AFB7943F01903DBB21370174A164B1B78DBB243F00103DBB21370F92000F036F8FB
:40588000F92000F051F8002000F05EF8002000F06BF8002000F078F801F08AFB0346BB71094A094B1B78DBB243F01003DBB21370BB79184601F080FB00F028F800BF083729
:4058C000BD4680BD776500409765004080B400AF054A054B1B78DBB263F07F03DBB2137000BFBD4680BC70477765004080B483B000AF0346FB71044AFB79137000BF0C37A6
:40590000BD4680BC704700BF0765004080B500AF01E000F055F800F047F8034603F01003002BF6D100BF80BD80B483B000AF0346FB71044AFB79137000BF0C37BD4680BC47
:40594000704700BF4765004080B483B000AF0346FB71044AFB79137000BF0C37BD4680BC704700BF2765004080B483B000AF0346FB71044AFB79137000BF0C37BD4680BCE1
:40598000704700BF3765004080B483B000AF0346FB71044AFB79137000BF0C37BD4680BC704700BF8765004080B400AF034B1B78DBB21846BD4680BC704700BF6765004032
:4059C00080B400AF034B1B78DBB21846BD4680BC704700BF5765004080B500AF0A4B0C221A700A4A094B1B78DBB243F02003DBB21370074B80221A70002000F05DF8032022
:405A000000F03EF800BF80BD04580040055800400658004080B400AF0D4A0D4B1B78DBB243F00203DBB213700A4A0A4B1B78DBB243F00203DBB21370074A074B1B78DBB29F
:405A400063F07F03DBB2137000BFBD4680BC7047A9430040B94300407758004080B500AF064B1B78002B04D1FFF7B6FF034B01221A70FFF7CFFF00BF80BD00BFA381FF1FE6
:405A800080B485B000AF0346FB710A4B1B78DBB223F00303FB73FB7903F00303DAB2FB7B1343FB73034AFB7B137000BF1437BD4680BC70470558004080B588B000AF0346A2
:405AC000FB71284A07F114031068516803C3127A1A70254A07F108031068516803C3127A1A70FB79082B39D8204A204B1B78DBB223F07F03DBB213701C481C4B1B78DAB2F1
:405B0000FB7907F120010B4413F80C1CFB7907F1200E734413F8183C9B00DBB203F00C03DBB20B43DBB21343DBB20370104A104B1B78DBB223F00C03DBB213700C490C4B0B
:405B40001B78DAB2FB7907F12000034413F8183C1343DBB243F00C03DBB20B7000BF2037BD4680BDFC8B0000088C0000065800400558004080B500AF0A4B0C221A700A4AB6
:405B8000094B1B78DBB243F02003DBB21370074B80221A70002000F05DF8032000F03EF800BF80BD08580040095800400A58004080B400AF0D4A0D4B1B78DBB243F0040314
:405BC000DBB213700A4A0A4B1B78DBB243F00403DBB21370074A074B1B78DBB263F07F03DBB2137000BFBD4680BC7047A9430040B94300407758004080B500AF064B1B78E6
:405C0000002B04D1FFF7B6FF034B01221A70FFF7CFFF00BF80BD00BFA481FF1F80B485B000AF0346FB710A4B1B78DBB223F00303FB73FB7903F00303DAB2FB7B1343FB7300
:405C4000034AFB7B137000BF1437BD4680BC70470958004080B588B000AF0346FB71284A07F114031068516803C3127A1A70254A07F108031068516803C3127A1A70FB79EB
:405C8000082B39D8204A204B1B78DBB223F07F03DBB213701C481C4B1B78DAB2FB7907F120010B4413F80C1CFB7907F1200E734413F8183C9B00DBB203F00C03DBB20B4358
:405CC000DBB21343DBB20370104A104B1B78DBB223F00C03DBB213700C490C4B1B78DAB2FB7907F12000034413F8183C1343DBB243F00C03DBB20B7000BF2037BD4680BD3A
:405D0000148C0000208C00000A5800400958004080B500AF00F06AFE022000F09FFE042000F0BCFEFCF730FB03461A46094B1A70FCF72AFB03461A46074B1A704FF48071A5
:405D4000064800F03BF83221054800F06BF800BF80BD00BFA881FF1FA981FF1F2C8C00002C8D000080B500AF00F05EFE084B1B7801211846FCF7BAF9064B1B780121184664
:405D8000FCF7B4F9002000F0A9FE00BF80BD00BFA681FF1FA781FF1F80B500AF064B1B78002B04D1FFF7B4FF034B01221A70FFF7D9FF00BF80BD00BFA581FF1F80B582B0A6
:405DC00000AF78600B467B807B681B0C9AB24FF480430121012000F0A5FD03461A460F4B1A700F4B18780E4B1A7879880523FCF7F9FA0B4B1B787A6891B245F682321846D3
:405E0000FCF730FB054B1A78054B1B7819461046FCF720FA00BF0837BD4680BDA681FF1FA881FF1F80B582B000AF78600B467B807B681B0C9AB24FF480430121012000F02A
:405E4000A3FD03461A460F4B1A700F4B18780E4B1A7879880123FCF7C5FA0B4B1B787A6891B245F682321846FCF7FCFA054B1A78054B1B7819461046FCF7ECF900BF0837B5
:405E8000BD4680BDA781FF1FA981FF1F80B500AF032000F039F800BF80BD00BF80B400AF0D4A0D4B1B78DBB243F06003DBB213700A4A0A4B1B78DBB243F00403DBB21370C6
:405EC000074A074B1B78DBB243F00403DBB2137000BFBD4680BC704777580040A4430040B443004080B500AF064B1B78002B04D1044B01221A70FFF7C9FFFFF7CFFF00BF6E
:405F000080BD00BFAA81FF1F80B483B000AF0346FB710C4A0B4B1B78DBB223F00303DBB213700849074B1B78DAB2FB7903F00303DBB21343DBB20B7000BF0C37BD4680BC01
:405F4000704700BF5C58004080B500AF064B00221A70064B00221A70042000F057F8022000F034F800BF80BD205800402158004080B400AF094A094B1B78DBB243F00103EA
:405F8000DBB21370064A064B1B78DBB243F00103DBB2137000BFBD4680BC7047A8430040B843004080B500AF074B1B78002B04D1FFF7CAFF044B01221A70FFF7D9FF9C20A0
:405FC00000F044F800BF80BDAB81FF1F80B483B000AF0346FB710C4A0B4B1B78DBB223F00203DBB213700849074B1B78DAB2FB7903F00203DBB21343DBB20B7000BF0C3755
:40600000BD4680BC704700BF2058004080B582B000AF0346FB710C4A0B4B1B78DBB223F00C03DBB213700849074B1B78DAB2FB7903F00C03DBB21343DBB20B7000F016F809
:4060400000BF0837BD4680BD2058004080B483B000AF0346FB71044AFB79137000BF0C37BD4680BC704700BF805B004080B483B000AF0B4B1B78DBB203F00C039B08DBB28A
:406080000633FB71074AFB7903F1924303F590731B78DBB2137000BF0C37BD4680BC7047205800400846004080B582B000AF0023FB7106E0FB791846FBF76EFDFB7901336F
:4060C000FB71FB79012BF5D9034BFF221A7000BF0837BD4680BD00BF0581FF1F80B582B000AF0346FB71FFF7DFFFFB791846FBF733FD034AFB79137000BF0837BD4680BD17
:406100000581FF1F80B500AF032000F039F800BF80BD00BF80B400AF0D4A0D4B1B78DBB243F06003DBB213700A4A0A4B1B78DBB243F00803DBB21370074A074B1B78DBB2A6
:4061400043F00803DBB2137000BFBD4680BC704777580040A4430040B443004080B500AF064B1B78002B04D1044B01221A70FFF7C9FFFFF7CFFF00BF80BD00BFAC81FF1F63
:4061800080B483B000AF0346FB710C4A0B4B1B78DBB223F00303DBB213700849074B1B78DAB2FB7903F00303DBB21343DBB20B7000BF0C37BD4680BC704700BF5E58004058
:4061C00080B500AF00F01CFD022000F051FD042000F06EFDFCF7D8F803461A46094B1A70FCF7D2F803461A46074B1A704FF48071064800F03BF83221054800F06BF800BFF0
:4062000080BD00BFB081FF1FB181FF1F608D0000608E000080B500AF00F010FD084B1B7801211846FBF762FF064B1B7801211846FBF75CFF002000F05BFD00BF80BD00BF7A
:40624000AE81FF1FAF81FF1F80B500AF064B1B78002B04D1FFF7B4FF034B01221A70FFF7D9FF00BF80BD00BFAD81FF1F80B582B000AF78600B467B807B681B0C9AB24FF46F
:4062800080430121012000F057FC03461A460F4B1A700F4B18780E4B1A7879880523FCF7A1F80B4B1B787A6891B245F681321846FCF7D8F8054B1A78054B1B7819461046E7
:4062C000FBF7C8FF00BF0837BD4680BDAE81FF1FB081FF1F80B582B000AF78600B467B807B681B0C9AB24FF480430121012000F055FC03461A460F4B1A700F4B18780E4B21
:406300001A7879880123FCF76DF80B4B1B787A6891B245F681321846FCF7A4F8054B1A78054B1B7819461046FBF794FF00BF0837BD4680BDAF81FF1FB181FF1F80B500AFA6
:40634000032000F039F800BF80BD00BF80B400AF0D4A0D4B1B78DBB243F06003DBB213700A4A0A4B1B78DBB243F00103DBB21370074A074B1B78DBB243F00103DBB21370AC
:4063800000BFBD4680BC704777580040A4430040B443004080B500AF064B1B78002B04D1044B01221A70FFF7C9FFFFF7CFFF00BF80BD00BFB281FF1F80B483B000AF03460A
:4063C000FB710C4A0B4B1B78DBB223F00303DBB213700849074B1B78DAB2FB7903F00303DBB21343DBB20B7000BF0C37BD4680BC704700BF5858004080B584B000AF03461A
:406400000A46FB8013467B7100F0B4F80346FB7300F0A4F80346BB81FA88BB899A4200F08880464B1B78DBB203F02003FB72FB7B002B20D1BB89002B02D0FB88002B1AD1AE
:40644000BB89002B0BD13E4AFB8813803D4A3D4B1B78DBB223F04003DBB2137069E0394A384B1B78DBB243F04003DBB21370344AFB8813805DE0FB7A002B33D0324B002296
:406480001A70324B20221A70314B00221A70314A304B1B78DBB203F07F03DBB21370294B1B78DBB203F00803002B02D0FB88002B18D1294ABB891380234B07221A7000BFF6
:4064C000214B1B78DBB203F00103002BF8D11B4A1A4B1B78DBB223F02003DBB213701A4B00221A70154B1B78DBB203F02003002B13D0194AFB881380134A7B79002B01D07A
:40650000032300E00123137000BF0F4B1B78DBB203F00103002BF8D10BE0094AFB8813800649064B1B78DAB2FB7A1343DBB20B70FFE700BF1037BD4680BD00BFA243004094
:406540009440004096400040014000401040004014400040084000400240004080B400AF034B1B889BB21846BD4680BC704700BF9440004080B400AF044B1B78DBB203F0B5
:406580000703DBB21846BD4680BC70479640004080B582B000AF0023FB7106E0FB791846FBF752FBFB790133FB71FB79012BF5D9034BFF221A7000BF0837BD4680BD00BFC6
:4065C0000681FF1F80B582B000AF0346FB71FFF7DFFFFB791846FBF701FB034AFB79137000BF0837BD4680BD0681FF1F80B500AF0A4B0C221A700A4A094B1B78DBB243F084
:406600002003DBB21370074B80221A70002000F05DF8032000F03EF800BF80BD00580040015800400258004080B400AF0D4A0D4B1B78DBB243F00103DBB213700A4A0A4B92
:406640001B78DBB243F00103DBB21370074A074B1B78DBB263F07F03DBB2137000BFBD4680BC7047A9430040B94300407758004080B500AF064B1B78002B04D1FFF7B6FF6C
:40668000034B01221A70FFF7CFFF00BF80BD00BFB381FF1F80B485B000AF0346FB710A4B1B78DBB223F00303FB73FB7903F00303DAB2FB7B1343FB73034AFB7B137000BF0D
:4066C0001437BD4680BC70470158004080B588B000AF0346FB71284A07F114031068516803C3127A1A70254A07F108031068516803C3127A1A70FB79082B39D8204A204B55
:406700001B78DBB223F07F03DBB213701C481C4B1B78DAB2FB7907F120010B4413F80C1CFB7907F1200E734413F8183C9B00DBB203F00C03DBB20B43DBB21343DBB2037003
:40674000104A104B1B78DBB223F00C03DBB213700C490C4B1B78DAB2FB7907F12000034413F8183C1343DBB243F00C03DBB20B7000BF2037BD4680BD948E0000A08E000042
:40678000025800400158004080B500AF0A4B0C221A700A4A094B1B78DBB243F02003DBB21370074B80221A70002000F05DF8032000F03EF800BF80BD0C5800400D58004016
:4067C0000E58004080B400AF0D4A0D4B1B78DBB243F00803DBB213700A4A0A4B1B78DBB243F00803DBB21370074A074B1B78DBB263F07F03DBB2137000BFBD4680BC70477F
:40680000A9430040B94300407758004080B500AF064B1B78002B04D1FFF7B6FF034B01221A70FFF7CFFF00BF80BD00BFB481FF1F80B485B000AF0346FB710A4B1B78DBB25F
:4068400023F00303FB73FB7903F00303DAB2FB7B1343FB73034AFB7B137000BF1437BD4680BC70470D58004080B588B000AF0346FB71284A07F114031068516803C3127A9E
:406880001A70254A07F108031068516803C3127A1A70FB79082B39D8204A204B1B78DBB223F07F03DBB213701C481C4B1B78DAB2FB7907F120010B4413F80C1CFB7907F118
:4068C000200E734413F8183C9B00DBB203F00C03DBB20B43DBB21343DBB20370104A104B1B78DBB223F00C03DBB213700C490C4B1B78DAB2FB7907F12000034413F8183C68
:406900001343DBB243F00C03DBB20B7000BF2037BD4680BDAC8E0000B88E00000E5800400D58004090B585B002AF0446084611461A462346FB710346BB710B46BB80134660
:406940007B80104B04221A700E4B1878BA79F97900230193002300930423FBF7C5FC094B1B787A88B9881846FBF738FC054B1B7802211846FBF700FC024B1B7818460C37BB
:40698000BD4690BD0781FF1F90B585B002AF0446084611461A462346FB710346BB710B46BB8013467B80104B05221A700E4B1878BA79F97900230193002300930023FBF721
:4069C00093FC094B1B787A88B9881846FBF706FC054B1B7802211846FBF7CEFB024B1B7818460C37BD4690BD0881FF1F80B500AF0A4B00221A700A4B00221A70094A094B68
:406A00001B78DBB243F00803DBB21370002000F045F8022000F022F800BF80BD2858004029580040975A004080B400AF094A094B1B78DBB243F00403DBB21370064A064B2C
:406A40001B78DBB243F00403DBB2137000BFBD4680BC7047A8430040B843004080B483B000AF0346FB710C4A0B4B1B78DBB223F00203DBB213700849074B1B78DAB2FB799C
:406A800003F00203DBB21343DBB20B7000BF0C37BD4680BC704700BF2858004080B582B000AF0346FB710C4A0B4B1B78DBB223F00C03DBB213700849074B1B78DAB2FB797D
:406AC00003F00C03DBB21343DBB20B7000F016F800BF0837BD4680BD2858004080B483B000AF0346FB71044AFB79137000BF0C37BD4680BC704700BF825B004080B483B062
:406B000000AF0B4B1B78DBB203F00C039B08DBB20633FB71074AFB7903F1924303F594731B78DBB2137000BF0C37BD4680BC7047285800400A46004090B585B002AF04466C
:406B4000084611461A462346FB710346BB710B46BB8013467B80104B02221A700E4B1878BA79F97900230193002300930223FBF7BBFB094B1B787A88B9881846FBF72EFB72
:406B8000054B1B7802211846FBF7F6FA024B1B7818460C37BD4690BD0981FF1F90B585B002AF0446084611461A462346FB710346BB710B46BB8013467B80104B03221A7068
:406BC0000E4B1878BA79F97900230193002300930023FBF789FB094B1B787A88B9881846FBF7FCFA054B1B7802211846FBF7C4FA024B1B7818460C37BD4690BD0A81FF1F03
:406C000080B500AF0A4B00221A700A4B00221A70094A094B1B78DBB243F00803DBB21370002000F045F8022000F022F800BF80BD24580040255800408F5A004080B400AF5F
:406C4000094A094B1B78DBB243F00203DBB21370064A064B1B78DBB243F00203DBB2137000BFBD4680BC7047A8430040B843004080B483B000AF0346FB710C4A0B4B1B78D7
:406C8000DBB223F00203DBB213700849074B1B78DAB2FB7903F00203DBB21343DBB20B7000BF0C37BD4680BC704700BF2458004080B582B000AF0346FB710C4A0B4B1B7889
:406CC000DBB223F00C03DBB213700849074B1B78DAB2FB7903F00C03DBB21343DBB20B7000F016F800BF0837BD4680BD2458004080B483B000AF0346FB71044AFB791370AA
:406D000000BF0C37BD4680BC704700BF815B004080B483B000AF0B4B1B78DBB203F00C039B08DBB20633FB71074AFB7903F1924303F598731B78DBB2137000BF0C37BD46E4
:406D400080BC7047245800400946004080B584B000AF03460A46FB8013467B7100F0B4F80346FB7300F0A4F80346BB81FA88BB899A4200F08880464B1B78DBB203F01003AF
:406D8000FB72FB7B002B20D1BB89002B02D0FB88002B1AD1BB89002B0BD13E4AFB8813803D4A3D4B1B78DBB223F04003DBB2137069E0394A384B1B78DBB243F04003DBB20A
:406DC0001370344AFB8813805DE0FB7A002B33D0324B00221A70324B10221A70314B00221A70314A304B1B78DBB203F07F03DBB21370294B1B78DBB203F00803002B02D0E8
:406E0000FB88002B18D1294ABB891380234B07221A7000BF214B1B78DBB203F00103002BF8D11B4A1A4B1B78DBB223F01003DBB213701A4B00221A70154B1B78DBB203F076
:406E40001003002B13D0194AFB881380134A7B79002B01D0032300E00123137000BF0F4B1B78DBB203F00103002BF8D10BE0094AFB8813800649064B1B78DAB2FB7A13437C
:406E8000DBB20B70FFE700BF1037BD4680BD00BFA24300409040004092400040014000401040004014400040084000400240004080B400AF034B1B889BB21846BD4680BC2B
:406EC000704700BF9040004080B400AF044B1B78DBB203F00703DBB21846BD4680BC70479240004080B500AF032000F039F800BF80BD00BF80B400AF0D4A0D4B1B78DBB235
:406F000043F06003DBB213700A4A0A4B1B78DBB243F00203DBB21370074A074B1B78DBB243F00203DBB2137000BFBD4680BC704777580040A4430040B443004080B500AF89
:406F4000064B1B78002B04D1044B01221A70FFF7C9FFFFF7CFFF00BF80BD00BFB581FF1F80B483B000AF0346FB710C4A0B4B1B78DBB223F00303DBB213700849074B1B78AA
:406F8000DAB2FB7903F00303DBB21343DBB20B7000BF0C37BD4680BC704700BF5A5800400230800803D000BF01380046FCD17047EFF3108072B6704780F31088704700BF23
:406FC00080B582B000AF0023BB711B4B1B78DBB203F00303012B02D0022B04D012E0164B1B79FB7111E0144B1B79DBB203F07F02124913465B0013449B000B440A331B7856
:40700000FB7102E00023FB7100BFFB79022B0ED80B4B1A68FB7913441B78022B04D1FCF753F80346BB7102E00023BB7100BFBB7918460837BD4680BD0060004000C3FF1FC0
:40704000F4C2FF1F81F0004102E000BF83F0004330B54FEA41044FEA430594EA050F08BF90EA020F1FBF54EA000C55EA020C7FEA645C7FEA655C00F0E2804FEA5454D4EBB1
:407080005555B8BF6D420CDD2C4480EA020281EA030382EA000083EA010180EA020281EA0303362D88BF30BD11F0004F4FEA01314FF4801C4CEA113102D0404261EB410183
:4070C00013F0004F4FEA03334CEA133302D0524263EB430394EA050F00F0A780A4F10104D5F1200E0DDB02FA0EFC22FA05F2801841F1000103FA0EF2801843FA05F35941F2
:407100000EE0A5F120050EF1200E012A03FA0EFC28BF4CF0020C43FA05F3C01851EBE37101F0004507D54FF0000EDCF1000C7EEB00006EEB0101B1F5801F1BD3B1F5001F85
:407140000CD349085FEA30004FEA3C0C04F101044FEA445212F5800F80F09A80BCF1004F08BF5FEA500C50F1000041EB045141EA050130BD5FEA4C0C404141EB010111F45F
:40718000801FA4F10104E9D191F0000F04BF01460020B1FA81F308BF2033A3F10B03B3F120020CDA0C3208DD02F1140CC2F10C0201FA0CF021FA02F10CE002F11402D8BF13
:4071C000C2F1200C01FA02F120FA0CFCDCBF41EA0C019040E41AA2BF01EB0451294330BD6FEA04041F3C1CDA0C340EDC04F11404C4F1200220FA04F001FA02F340EA030019
:4072000021FA04F345EA030130BDC4F10C04C4F1200220FA02F001FA04F340EA0300294630BD21FA04F0294630BD94F0000F83F4801306BF81F480110134013D4EE77FEA15
